{"src/EmberVoteArena.sol":{"EmberVoteArena":{"abi":[{"type":"constructor","inputs":[{"name":"_emberToken","type":"address","internalType":"address"},{"name":"_oracle","type":"address","internalType":"address"},{"name":"_stakingDrip","type":"address","internalType":"address"},{"name":"_burnAddress","type":"address","internalType":"address"}],"stateMutability":"nonpayable"},{"type":"function","name":"DEFAULT_ENTRY_DURATION","inputs":[],"outputs":[{"name":"","type":"uint256","internalType":"uint256"}],"stateMutability":"view"},{"type":"function","name":"DEFAULT_ENTRY_FEE","inputs":[],"outputs":[{"name":"","type":"uint256","internalType":"uint256"}],"stateMutability":"view"},{"type":"function","name":"DEFAULT_VOTE_DURATION","inputs":[],"outputs":[{"name":"","type":"uint256","internalType":"uint256"}],"stateMutability":"view"},{"type":"function","name":"FIRST_PLACE_BPS","inputs":[],"outputs":[{"name":"","type":"uint256","internalType":"uint256"}],"stateMutability":"view"},{"type":"function","name":"INITIATOR_BPS","inputs":[],"outputs":[{"name":"","type":"uint256","internalType":"uint256"}],"stateMutability":"view"},{"type":"function","name":"MARKET_CREATION_FEE","inputs":[],"outputs":[{"name":"","type":"uint256","internalType":"uint256"}],"stateMutability":"view"},{"type":"function","name":"MIN_ENTRIES_TO_PROCEED","inputs":[],"outputs":[{"name":"","type":"uint256","internalType":"uint256"}],"stateMutability":"view"},{"type":"function","name":"SECOND_PLACE_BPS","inputs":[],"outputs":[{"name":"","type":"uint256","internalType":"uint256"}],"stateMutability":"view"},{"type":"function","name":"STAKERS_BPS","inputs":[],"outputs":[{"name":"","type":"uint256","internalType":"uint256"}],"stateMutability":"view"},{"type":"function","name":"THIRD_PLACE_BPS","inputs":[],"outputs":[{"name":"","type":"uint256","internalType":"uint256"}],"stateMutability":"view"},{"type":"function","name":"burnAddress","inputs":[],"outputs":[{"name":"","type":"address","internalType":"address"}],"stateMutability":"view"},{"type":"function","name":"calculateVoteCost","inputs":[{"name":"currentTotalVotes","type":"uint256","internalType":"uint256"},{"name":"numVotes","type":"uint256","internalType":"uint256"}],"outputs":[{"name":"cost","type":"uint256","internalType":"uint256"}],"stateMutability":"view"},{"type":"function","name":"createMarket","inputs":[{"name":"title","type":"string","internalType":"string"},{"name":"rules","type":"string","internalType":"string"},{"name":"entryCost","type":"uint256","internalType":"uint256"},{"name":"entryDuration","type":"uint256","internalType":"uint256"},{"name":"voteDuration","type":"uint256","internalType":"uint256"}],"outputs":[{"name":"marketId","type":"uint256","internalType":"uint256"}],"stateMutability":"nonpayable"},{"type":"function","name":"curveExponent","inputs":[],"outputs":[{"name":"","type":"uint256","internalType":"uint256"}],"stateMutability":"view"},{"type":"function","name":"curveParam","inputs":[],"outputs":[{"name":"","type":"uint256","internalType":"uint256"}],"stateMutability":"view"},{"type":"function","name":"emberToken","inputs":[],"outputs":[{"name":"","type":"address","internalType":"contract IERC20"}],"stateMutability":"view"},{"type":"function","name":"entries","inputs":[{"name":"","type":"uint256","internalType":"uint256"},{"name":"","type":"uint256","internalType":"uint256"}],"outputs":[{"name":"author","type":"address","internalType":"address"},{"name":"data","type":"string","internalType":"string"},{"name":"votes","type":"uint256","internalType":"uint256"},{"name":"filtered","type":"bool","internalType":"bool"},{"name":"exists","type":"bool","internalType":"bool"}],"stateMutability":"view"},{"type":"function","name":"getCurrentVotePrice","inputs":[{"name":"marketId","type":"uint256","internalType":"uint256"},{"name":"numVotes","type":"uint256","internalType":"uint256"}],"outputs":[{"name":"","type":"uint256","internalType":"uint256"}],"stateMutability":"view"},{"type":"function","name":"getEntry","inputs":[{"name":"marketId","type":"uint256","internalType":"uint256"},{"name":"entryId","type":"uint256","internalType":"uint256"}],"outputs":[{"name":"","type":"tuple","internalType":"struct EmberVoteArena.Entry","components":[{"name":"author","type":"address","internalType":"address"},{"name":"data","type":"string","internalType":"string"},{"name":"votes","type":"uint256","internalType":"uint256"},{"name":"filtered","type":"bool","internalType":"bool"},{"name":"exists","type":"bool","internalType":"bool"}]}],"stateMutability":"view"},{"type":"function","name":"getLeaderboard","inputs":[{"name":"marketId","type":"uint256","internalType":"uint256"}],"outputs":[{"name":"entryIds","type":"uint256[]","internalType":"uint256[]"},{"name":"voteCounts","type":"uint256[]","internalType":"uint256[]"}],"stateMutability":"view"},{"type":"function","name":"getMarket","inputs":[{"name":"marketId","type":"uint256","internalType":"uint256"}],"outputs":[{"name":"","type":"tuple","internalType":"struct EmberVoteArena.Market","components":[{"name":"initiator","type":"address","internalType":"address"},{"name":"title","type":"string","internalType":"string"},{"name":"rules","type":"string","internalType":"string"},{"name":"entryCost","type":"uint256","internalType":"uint256"},{"name":"entryEnd","type":"uint256","internalType":"uint256"},{"name":"voteEnd","type":"uint256","internalType":"uint256"},{"name":"totalPot","type":"uint256","internalType":"uint256"},{"name":"totalVotes","type":"uint256","internalType":"uint256"},{"name":"entryCount","type":"uint256","internalType":"uint256"},{"name":"state","type":"uint8","internalType":"enum EmberVoteArena.MarketState"},{"name":"resolved","type":"bool","internalType":"bool"}]}],"stateMutability":"view"},{"type":"function","name":"getMarketEntries","inputs":[{"name":"marketId","type":"uint256","internalType":"uint256"}],"outputs":[{"name":"","type":"uint256[]","internalType":"uint256[]"}],"stateMutability":"view"},{"type":"function","name":"marketCount","inputs":[],"outputs":[{"name":"","type":"uint256","internalType":"uint256"}],"stateMutability":"view"},{"type":"function","name":"marketEntryIds","inputs":[{"name":"","type":"uint256","internalType":"uint256"},{"name":"","type":"uint256","internalType":"uint256"}],"outputs":[{"name":"","type":"uint256","internalType":"uint256"}],"stateMutability":"view"},{"type":"function","name":"markets","inputs":[{"name":"","type":"uint256","internalType":"uint256"}],"outputs":[{"name":"initiator","type":"address","internalType":"address"},{"name":"title","type":"string","internalType":"string"},{"name":"rules","type":"string","internalType":"string"},{"name":"entryCost","type":"uint256","internalType":"uint256"},{"name":"entryEnd","type":"uint256","internalType":"uint256"},{"name":"voteEnd","type":"uint256","internalType":"uint256"},{"name":"totalPot","type":"uint256","internalType":"uint256"},{"name":"totalVotes","type":"uint256","internalType":"uint256"},{"name":"entryCount","type":"uint256","internalType":"uint256"},{"name":"state","type":"uint8","internalType":"enum EmberVoteArena.MarketState"},{"name":"resolved","type":"bool","internalType":"bool"}],"stateMutability":"view"},{"type":"function","name":"oracle","inputs":[],"outputs":[{"name":"","type":"address","internalType":"address"}],"stateMutability":"view"},{"type":"function","name":"owner","inputs":[],"outputs":[{"name":"","type":"address","internalType":"address"}],"stateMutability":"view"},{"type":"function","name":"renounceOwnership","inputs":[],"outputs":[],"stateMutability":"nonpayable"},{"type":"function","name":"resolve","inputs":[{"name":"marketId","type":"uint256","internalType":"uint256"}],"outputs":[],"stateMutability":"nonpayable"},{"type":"function","name":"setBurnAddress","inputs":[{"name":"newBurn","type":"address","internalType":"address"}],"outputs":[],"stateMutability":"nonpayable"},{"type":"function","name":"setCurveParams","inputs":[{"name":"newParam","type":"uint256","internalType":"uint256"},{"name":"newExponent","type":"uint256","internalType":"uint256"}],"outputs":[],"stateMutability":"nonpayable"},{"type":"function","name":"setOracle","inputs":[{"name":"newOracle","type":"address","internalType":"address"}],"outputs":[],"stateMutability":"nonpayable"},{"type":"function","name":"setStakingDrip","inputs":[{"name":"newDrip","type":"address","internalType":"address"}],"outputs":[],"stateMutability":"nonpayable"},{"type":"function","name":"stakingDrip","inputs":[],"outputs":[{"name":"","type":"address","internalType":"address"}],"stateMutability":"view"},{"type":"function","name":"submitEntry","inputs":[{"name":"marketId","type":"uint256","internalType":"uint256"},{"name":"data","type":"string","internalType":"string"},{"name":"approved","type":"bool","internalType":"bool"},{"name":"signature","type":"bytes","internalType":"bytes"}],"outputs":[{"name":"entryId","type":"uint256","internalType":"uint256"}],"stateMutability":"nonpayable"},{"type":"function","name":"transferOwnership","inputs":[{"name":"newOwner","type":"address","internalType":"address"}],"outputs":[],"stateMutability":"nonpayable"},{"type":"function","name":"userVotes","inputs":[{"name":"","type":"uint256","internalType":"uint256"},{"name":"","type":"address","internalType":"address"}],"outputs":[{"name":"","type":"uint256","internalType":"uint256"}],"stateMutability":"view"},{"type":"function","name":"vote","inputs":[{"name":"marketId","type":"uint256","internalType":"uint256"},{"name":"entryId","type":"uint256","internalType":"uint256"},{"name":"voteAmount","type":"uint256","internalType":"uint256"}],"outputs":[],"stateMutability":"nonpayable"},{"type":"event","name":"CurveParamsUpdated","inputs":[{"name":"newParam","type":"uint256","indexed":false,"internalType":"uint256"},{"name":"newExponent","type":"uint256","indexed":false,"internalType":"uint256"}],"anonymous":false},{"type":"event","name":"EntrySubmitted","inputs":[{"name":"marketId","type":"uint256","indexed":true,"internalType":"uint256"},{"name":"entryId","type":"uint256","indexed":true,"internalType":"uint256"},{"name":"author","type":"address","indexed":true,"internalType":"address"},{"name":"data","type":"string","indexed":false,"internalType":"string"},{"name":"filtered","type":"bool","indexed":false,"internalType":"bool"}],"anonymous":false},{"type":"event","name":"MarketCreated","inputs":[{"name":"marketId","type":"uint256","indexed":true,"internalType":"uint256"},{"name":"initiator","type":"address","indexed":true,"internalType":"address"},{"name":"title","type":"string","indexed":false,"internalType":"string"},{"name":"entryCost","type":"uint256","indexed":false,"internalType":"uint256"},{"name":"entryEnd","type":"uint256","indexed":false,"internalType":"uint256"},{"name":"voteEnd","type":"uint256","indexed":false,"internalType":"uint256"}],"anonymous":false},{"type":"event","name":"MarketResolved","inputs":[{"name":"marketId","type":"uint256","indexed":true,"internalType":"uint256"},{"name":"firstPlace","type":"uint256","indexed":false,"internalType":"uint256"},{"name":"secondPlace","type":"uint256","indexed":false,"internalType":"uint256"},{"name":"thirdPlace","type":"uint256","indexed":false,"internalType":"uint256"}],"anonymous":false},{"type":"event","name":"OracleUpdated","inputs":[{"name":"oldOracle","type":"address","indexed":true,"internalType":"address"},{"name":"newOracle","type":"address","indexed":true,"internalType":"address"}],"anonymous":false},{"type":"event","name":"OwnershipTransferred","inputs":[{"name":"previousOwner","type":"address","indexed":true,"internalType":"address"},{"name":"newOwner","type":"address","indexed":true,"internalType":"address"}],"anonymous":false},{"type":"event","name":"PayoutDistributed","inputs":[{"name":"marketId","type":"uint256","indexed":true,"internalType":"uint256"},{"name":"recipient","type":"address","indexed":true,"internalType":"address"},{"name":"amount","type":"uint256","indexed":false,"internalType":"uint256"},{"name":"payoutType","type":"string","indexed":false,"internalType":"string"}],"anonymous":false},{"type":"event","name":"VoteCast","inputs":[{"name":"marketId","type":"uint256","indexed":true,"internalType":"uint256"},{"name":"entryId","type":"uint256","indexed":true,"internalType":"uint256"},{"name":"voter","type":"address","indexed":true,"internalType":"address"},{"name":"amount","type":"uint256","indexed":false,"internalType":"uint256"},{"name":"cost","type":"uint256","indexed":false,"internalType":"uint256"}],"anonymous":false},{"type":"error","name":"CannotVoteOnFilteredEntry","inputs":[]},{"type":"error","name":"ECDSAInvalidSignature","inputs":[]},{"type":"error","name":"ECDSAInvalidSignatureLength","inputs":[{"name":"length","type":"uint256","internalType":"uint256"}]},{"type":"error","name":"ECDSAInvalidSignatureS","inputs":[{"name":"s","type":"bytes32","internalType":"bytes32"}]},{"type":"error","name":"EntryDoesNotExist","inputs":[]},{"type":"error","name":"InsufficientPayment","inputs":[]},{"type":"error","name":"InvalidMarket","inputs":[]},{"type":"error","name":"InvalidOracle","inputs":[]},{"type":"error","name":"InvalidSignature","inputs":[]},{"type":"error","name":"MarketAlreadyResolved","inputs":[]},{"type":"error","name":"MarketNotInEntryPhase","inputs":[]},{"type":"error","name":"MarketNotInVotingPhase","inputs":[]},{"type":"error","name":"OwnableInvalidOwner","inputs":[{"name":"owner","type":"address","internalType":"address"}]},{"type":"error","name":"OwnableUnauthorizedAccount","inputs":[{"name":"account","type":"address","internalType":"address"}]},{"type":"error","name":"SafeERC20FailedOperation","inputs":[{"name":"token","type":"address","internalType":"address"}]},{"type":"error","name":"TransferFailed","inputs":[]},{"type":"error","name":"VotingNotEnded","inputs":[]},{"type":"error","name":"ZeroAddress","inputs":[]},{"type":"error","name":"ZeroAmount","inputs":[]}],"userdoc":{},"devdoc":{},"evm":{"bytecode":{"object":"60a060405261271060045560026005553480156200001b575f80fd5b5060405162003136380380620031368339810160408190526200003e91620001c3565b33806200006457604051631e4fbdf760e01b81525f600482015260240160405180910390fd5b6200006f8162000158565b506001600160a01b038416620000985760405163d92e233d60e01b815260040160405180910390fd5b6001600160a01b038316620000c05760405163d92e233d60e01b815260040160405180910390fd5b6001600160a01b038216620000e85760405163d92e233d60e01b815260040160405180910390fd5b6001600160a01b038116620001105760405163d92e233d60e01b815260040160405180910390fd5b6001600160a01b03938416608052600180549385166001600160a01b03199485161790556002805492851692841692909217909155600380549190931691161790556200021d565b5f80546001600160a01b038381166001600160a01b0319831681178455604051919092169283917f8be0079c531659141344cd1fd0a4f28419497f9722a3daafe3b4186f6b6457e09190a35050565b80516001600160a01b0381168114620001be575f80fd5b919050565b5f805f8060808587031215620001d7575f80fd5b620001e285620001a7565b9350620001f260208601620001a7565b92506200020260408601620001a7565b91506200021260608601620001a7565b905092959194509250565b608051612eba6200027c5f395f818161025601528181610a3201528181610c4c0152818161130e01528181611ab801528181611b6301528181611eff01528181611faa01528181612056015281816120e501526121750152612eba5ff3fe608060405234801561000f575f80fd5b5060043610610229575f3560e01c806398ba676d1161012a578063bc3ee2b9116100b4578063e1e1ed5a11610079578063e1e1ed5a146102d4578063eb44fdd3146104bb578063ec979082146104db578063f2fde38b146104e4578063fe5b3e3b146104f7575f80fd5b8063bc3ee2b914610471578063bd2ea63f14610484578063c03eee32146103e5578063cff4cc3114610497578063dc6f7c57146104a8575f80fd5b8063a34b46fe116100fa578063a34b46fe14610401578063a4b9328b14610422578063a5d6fb1f1461042b578063ab8c9f8d1461043e578063b1283e7714610447575f80fd5b806398ba676d146103b25780639bd1d513146103d2578063a04941a2146103e5578063a06dbfa3146103ee575f80fd5b80634f896d4f116101b65780637dc0d1d01161017b5780637dc0d1d01461036b5780638a6655d61461037e5780638da5cb5b14610391578063977a5c47146103a157806397874124146103a9575f80fd5b80634f896d4f146103175780635c2e1f2a1461032a57806370d5ae051461033d578063715018a6146103505780637adbf97314610358575f80fd5b806326f4c776116101fc57806326f4c776146102d457806328cd26dc146102dd5780632a9795cd146102f0578063324578f8146102f95780634b0e721614610302575f80fd5b80630a6f89811461022d5780630cae9d5e1461025157806317b937e61461029057806319a51a31146102b4575b5f80fd5b61023e69152d02c7e14af680000081565b6040519081526020015b60405180910390f35b6102787f000000000000000000000000000000000000000000000000000000000000000081565b6040516001600160a01b039091168152602001610248565b6102a361029e3660046126eb565b610521565b60405161024895949392919061274e565b6102c76102c2366004612790565b6105f1565b60405161024891906127e1565b61023e61546081565b61023e6102eb3660046126eb565b610650565b61023e60055481565b61023e60045481565b61031561031036600461280e565b610674565b005b610315610325366004612790565b6106c5565b600254610278906001600160a01b031681565b600354610278906001600160a01b031681565b610315610847565b61031561036636600461280e565b61085a565b600154610278906001600160a01b031681565b61031561038c366004612827565b6108e4565b5f546001600160a01b0316610278565b61023e600281565b61023e6107d081565b6103c56103c03660046126eb565b610b1a565b6040516102489190612850565b61023e6103e03660046128f0565b610c39565b61023e6103e881565b6103156103fc3660046126eb565b610ed6565b61041461040f366004612790565b610f25565b604051610248929190612970565b61023e61157c81565b61023e61043936600461299d565b611196565b61023e6101f481565b61045a610455366004612790565b6114c9565b6040516102489b9a99989796959493929190612a5d565b61023e61047f3660046126eb565b611639565b61023e6104923660046126eb565b611664565b61023e69021e19e0c9bab240000081565b6103156104b636600461280e565b6116fd565b6104ce6104c9366004612790565b61174e565b6040516102489190612ae4565b61023e60065481565b6103156104f236600461280e565b61192c565b61023e610505366004612ba7565b600960209081525f928352604080842090915290825290205481565b600860209081525f9283526040808420909152908252902080546001820180546001600160a01b03909216929161055790612bd1565b80601f016020809104026020016040519081016040528092919081815260200182805461058390612bd1565b80156105ce5780601f106105a5576101008083540402835291602001916105ce565b820191905f5260205f20905b8154815290600101906020018083116105b157829003601f168201915b50505050600283015460039093015491929160ff80821692506101009091041685565b5f818152600a602090815260409182902080548351818402810184019094528084526060939283018282801561064457602002820191905f5260205f20905b815481526020019060010190808311610630575b50505050509050919050565b5f8281526007602081905260408220015461066b9083611664565b90505b92915050565b61067c61196e565b6001600160a01b0381166106a35760405163d92e233d60e01b815260040160405180910390fd5b600380546001600160a01b0319166001600160a01b0392909216919091179055565b5f81815260076020526040902080546001600160a01b03166106fa57604051639db8d5b160e01b815260040160405180910390fd5b6009810154610100900460ff16156107255760405163aa43cb2d60e01b815260040160405180910390fd5b8060050154421161074957604051633fc30bd160e11b815260040160405180910390fd5b60098101805461ffff19166101021790555f828152600a60209081526040808320805482518185028101850190935280835291929091908301828280156107ad57602002820191905f5260205f20905b815481526020019060010190808311610799575b505050505090505f6107bf848361199a565b905060028110156107da576107d48483611a0b565b50505050565b5f805f6107e78786611be7565b6040805184815260208101849052908101829052929550909350915087907f9f7cb4c52f35416365b5664015fc31776d715fff39c7b9cb7529d135f9885f499060600160405180910390a261083e87848484611cc5565b50505050505050565b61084f61196e565b6108585f612206565b565b61086261196e565b6001600160a01b03811661088957604051639589a27d60e01b815260040160405180910390fd5b6001546040516001600160a01b038084169216907f078c3b417dadf69374a59793b829c52001247130433427049317bde56607b1b7905f90a3600180546001600160a01b0319166001600160a01b0392909216919091179055565b805f0361090457604051631f2a200560e01b815260040160405180910390fd5b5f8381526007602090815260408083206008835281842086855290925290912081546001600160a01b031661094c57604051639db8d5b160e01b815260040160405180910390fd5b6003810154610100900460ff166109765760405163d12045c560e01b815260040160405180910390fd5b600381015460ff161561099c5760405163fc860c3760e01b815260040160405180910390fd5b816004015442116109c057604051635b7a119b60e11b815260040160405180910390fd5b81600501544211156109e557604051635b7a119b60e11b815260040160405180910390fd5b5f600983015460ff1660038111156109ff576109ff612a29565b03610a145760098201805460ff191660011790555b5f610a23836007015485611664565b9050610a5a6001600160a01b037f000000000000000000000000000000000000000000000000000000000000000016333084612255565b80836006015f828254610a6d9190612c1d565b9250508190555083826002015f828254610a879190612c1d565b9250508190555083836007015f828254610aa19190612c1d565b90915550505f86815260096020908152604080832033845290915281208054869290610ace908490612c1d565b909155505060408051858152602081018390523391879189917f58cfe003711e6d7e0f32c93d3eb5617a03925d8863d7bb5dc084666365866022910160405180910390a4505050505050565b6040805160a0810182525f80825260606020830181905292820181905291810182905260808101919091525f838152600860209081526040808320858452825291829020825160a0810190935280546001600160a01b031683526001810180549192840191610b8890612bd1565b80601f0160208091040260200160405190810160405280929190818152602001828054610bb490612bd1565b8015610bff5780601f10610bd657610100808354040283529160200191610bff565b820191905f5260205f20905b815481529060010190602001808311610be257829003601f168201915b50505091835250506002820154602082015260039091015460ff808216151560408401526101009091041615156060909101529392505050565b6003545f90610c81906001600160a01b037f000000000000000000000000000000000000000000000000000000000000000081169133911669152d02c7e14af6800000612255565b835f03610c965769021e19e0c9bab240000093505b825f03610ca35761546092505b815f03610cb05761546091505b60068054905f610cbf83612c30565b9091555090505f610cd08442612c1d565b90505f610cdd8483612c1d565b9050604051806101600160405280336001600160a01b031681526020018b8b8080601f0160208091040260200160405190810160405280939291908181526020018383808284375f92019190915250505090825250604080516020601f8c018190048102820181019092528a815291810191908b908b90819084018382808284375f9201829052509385525050506020820189905260408201859052606082018490526080820181905260a0820181905260c0820181905260e09091019081525f60209182018190528581526007825260409020825181546001600160a01b0319166001600160a01b03909116178155908201516001820190610de09082612ca7565b5060408201516002820190610df59082612ca7565b50606082015181600301556080820151816004015560a0820151816005015560c0820151816006015560e082015181600701556101008201518160080155610120820151816009015f6101000a81548160ff02191690836003811115610e5d57610e5d612a29565b02179055506101409190910151600990910180549115156101000261ff0019909216919091179055604051339084907f4a7d407b15f60472268a43a4f0fc258be19105b8967dd8123b49b25ade8d012890610ec1908e908e908c9089908990612d8f565b60405180910390a35050979650505050505050565b610ede61196e565b6004829055600581905560408051838152602081018390527fc7f5f3d6d899e425ac39aa624d04deea7cdea431373328bda593d20cf3fa12e7910160405180910390a15050565b6060805f600a5f8581526020019081526020015f20805480602002602001604051908101604052809291908181526020018280548015610f8257602002820191905f5260205f20905b815481526020019060010190808311610f6e575b505050505090505f815167ffffffffffffffff811115610fa457610fa4612c48565b604051908082528060200260200182016040528015610fcd578160200160208202803683370190505b5090505f5b825181101561103d5760085f8781526020019081526020015f205f848381518110610fff57610fff612dbf565b602002602001015181526020019081526020015f206002015482828151811061102a5761102a612dbf565b6020908102919091010152600101610fd2565b505f5b825181101561118b575f611055826001612c1d565b90505b83518110156111825782828151811061107357611073612dbf565b602002602001015183828151811061108d5761108d612dbf565b6020026020010151111561117a578281815181106110ad576110ad612dbf565b60200260200101518383815181106110c7576110c7612dbf565b60200260200101518484815181106110e1576110e1612dbf565b602002602001018584815181106110fa576110fa612dbf565b602002602001018281525082815250505083818151811061111d5761111d612dbf565b602002602001015184838151811061113757611137612dbf565b602002602001015185848151811061115157611151612dbf565b6020026020010186848151811061116a5761116a612dbf565b6020908102919091010191909152525b600101611058565b50600101611040565b509094909350915050565b5f86815260076020526040812080546001600160a01b03166111cb57604051639db8d5b160e01b815260040160405180910390fd5b806004015442111561121f575f600982015460ff1660038111156111f1576111f1612a29565b036112065760098101805460ff191660011790555b60405163d7d0062d60e01b815260040160405180910390fd5b5f888888886040516020016112379493929190612dd3565b6040516020818303038152906040528051906020012090505f611286827f19457468657265756d205369676e6564204d6573736167653a0a3332000000005f908152601c91909152603c902090565b90505f6112ca87878080601f0160208091040260200160405190810160405280939291908181526020018383808284375f92019190915250869392505061228b9050565b6001549091506001600160a01b038083169116146112fb57604051638baa579f60e01b815260040160405180910390fd5b6003840154611338906001600160a01b037f0000000000000000000000000000000000000000000000000000000000000000169033903090612255565b8360030154846006015f82825461134f9190612c1d565b9091555050600884018054905f61136583612c30565b9190505594506040518060a00160405280336001600160a01b031681526020018b8b8080601f0160208091040260200160405190810160405280939291908181526020018383808284375f92018290525093855250505060208083018290528b15604080850191909152600160609094018490528f8352600882528083208a84528252909120835181546001600160a01b0319166001600160a01b0390911617815590830151909182019061141a9082612ca7565b50604082810151600283015560608301516003909201805460809094015115156101000261ff00199315159390931661ffff1990941693909317919091179091555f8c8152600a6020908152828220805460018101825590835291200186905551339086908d907ffb299d98ffbafefc1b2a01b414e9fd21b444fef89b691d2fd2aed101ec4d27a7906114b3908f908f908f1590612df6565b60405180910390a4505050509695505050505050565b60076020525f9081526040902080546001820180546001600160a01b0390921692916114f490612bd1565b80601f016020809104026020016040519081016040528092919081815260200182805461152090612bd1565b801561156b5780601f106115425761010080835404028352916020019161156b565b820191905f5260205f20905b81548152906001019060200180831161154e57829003601f168201915b50505050509080600201805461158090612bd1565b80601f01602080910402602001604051908101604052809291908181526020018280546115ac90612bd1565b80156115f75780601f106115ce576101008083540402835291602001916115f7565b820191905f5260205f20905b8154815290600101906020018083116115da57829003601f168201915b50505050600383015460048401546005850154600686015460078701546008880154600990980154969794969395509193909260ff808216916101009004168b565b600a602052815f5260405f208181548110611652575f80fd5b905f5260205f20015f91509150505481565b5f670de0b6b3a76400008161167985836122b3565b90505f61168f6116898688612c1d565b846122b3565b9050670de0b6b3a76400006002866116a78486612c1d565b6116b19190612e1b565b6116bb9190612e32565b6116c59190612e32565b93505f670de0b6b3a76400006116db8786612e1b565b6116e59190612e32565b9050808510156116f3578094505b5050505092915050565b61170561196e565b6001600160a01b03811661172c5760405163d92e233d60e01b815260040160405180910390fd5b600280546001600160a01b0319166001600160a01b0392909216919091179055565b611756612680565b5f828152600760209081526040918290208251610160810190935280546001600160a01b03168352600181018054919284019161179290612bd1565b80601f01602080910402602001604051908101604052809291908181526020018280546117be90612bd1565b80156118095780601f106117e057610100808354040283529160200191611809565b820191905f5260205f20905b8154815290600101906020018083116117ec57829003601f168201915b5050505050815260200160028201805461182290612bd1565b80601f016020809104026020016040519081016040528092919081815260200182805461184e90612bd1565b80156118995780601f1061187057610100808354040283529160200191611899565b820191905f5260205f20905b81548152906001019060200180831161187c57829003601f168201915b50505091835250506003828101546020830152600483015460408301526005830154606083015260068301546080830152600783015460a0830152600883015460c0830152600983015460e09092019160ff16908111156118fc576118fc612a29565b600381111561190d5761190d612a29565b815260099190910154610100900460ff16151560209091015292915050565b61193461196e565b6001600160a01b03811661196257604051631e4fbdf760e01b81525f60048201526024015b60405180910390fd5b61196b81612206565b50565b5f546001600160a01b031633146108585760405163118cdaa760e01b8152336004820152602401611959565b5f805b8251811015611a045760085f8581526020019081526020015f205f8483815181106119ca576119ca612dbf565b60209081029190910181015182528101919091526040015f206003015460ff166119fc57816119f881612c30565b9250505b60010161199d565b5092915050565b5f828152600760205260408120905b8251811015611b42575f84815260086020526040812084518290869085908110611a4657611a46612dbf565b602002602001015181526020019081526020015f2090508060030160019054906101000a900460ff168015611a805750600381015460ff16155b15611b395760038301548015611b375780846006015f828254611aa39190612e51565b90915550508154611ae1906001600160a01b037f000000000000000000000000000000000000000000000000000000000000000081169116836123af565b81546040516001600160a01b039091169087905f80516020612e6583398151915290611b2e90858152604060208201819052600690820152651c99599d5b9960d21b606082015260800190565b60405180910390a35b505b50600101611a1a565b50600681015415611be2576002546006820154611b8d916001600160a01b037f00000000000000000000000000000000000000000000000000000000000000008116929116906123af565b60025460068201546040805191825260208201819052600790820152667374616b65727360c81b60608201526001600160a01b039091169084905f80516020612e658339815191529060800160405180910390a35b505050565b5f805f805f805f5b8751811015611cba575f898152600860205260408120895182908b9085908110611c1b57611c1b612dbf565b602002602001015181526020019081526020015f209050806003015f9054906101000a900460ff1615611c4e5750611cb2565b5f816002015490505f8a8481518110611c6957611c69612dbf565b6020026020010151905086821115611c8a5798979650949392508488611cae565b85821115611c9f579796509392508387611cae565b84821115611cae578097508194505b5050505b600101611bef565b505050509250925092565b5f84815260076020908152604080832060068101546008845282852088865290935281842086855282852086865292852060028085015490830154939692949391929182918291148015611d20575083600201548560020154145b15611d74575f6003612710896103e8611d3d6107d061157c612c1d565b611d479190612c1d565b611d519190612e1b565b611d5b9190612e32565b611d659190612e32565b9350839250829150611e9a9050565b8460020154866002015403611ddf575f600261271089611d986107d061157c612c1d565b611da29190612e1b565b611dac9190612e32565b611db69190612e32565b9350839250829050612710611dcd896103e8612e1b565b611dd79190612e32565b915050611e9a565b8360020154856002015403611e4857612710611dfd8861157c612e1b565b611e079190612e32565b92505f600261271089611e1e6103e86107d0612c1d565b611e289190612e1b565b611e329190612e32565b611e3c9190612e32565b9250829150611e9a9050565b612710611e578861157c612e1b565b611e619190612e32565b9250612710611e72886107d0612e1b565b611e7c9190612e32565b9150612710611e8d886103e8612e1b565b611e979190612e32565b90505b5f612710611eaa896103e8612e1b565b611eb49190612e32565b90505f612710611ec68a6101f4612e1b565b611ed09190612e32565b90505f85118015611eea575087546001600160a01b031615155b15611f7d578754611f28906001600160a01b037f000000000000000000000000000000000000000000000000000000000000000081169116876123af565b87546040516001600160a01b03909116908f905f80516020612e6583398151915290611f749089815260406020820181905260059082015264199a5c9cdd60da1b606082015260800190565b60405180910390a35b5f84118015611f95575086546001600160a01b031615155b15612029578654611fd3906001600160a01b037f000000000000000000000000000000000000000000000000000000000000000081169116866123af565b86546040516001600160a01b03909116908f905f80516020612e658339815191529061202090888152604060208201819052600690820152651cd958dbdb9960d21b606082015260800190565b60405180910390a35b5f83118015612041575085546001600160a01b031615155b156120d457855461207f906001600160a01b037f000000000000000000000000000000000000000000000000000000000000000081169116856123af565b85546040516001600160a01b03909116908f905f80516020612e65833981519152906120cb90878152604060208201819052600590820152641d1a1a5c9960da1b606082015260800190565b60405180910390a35b60025461210e906001600160a01b037f000000000000000000000000000000000000000000000000000000000000000081169116846123af565b6002546040516001600160a01b03909116908f905f80516020612e658339815191529061215d90868152604060208201819052600790820152667374616b65727360c81b606082015260800190565b60405180910390a3895461219e906001600160a01b037f000000000000000000000000000000000000000000000000000000000000000081169116836123af565b89546040516001600160a01b03909116908f905f80516020612e65833981519152906121ee908581526040602082018190526009908201526834b734ba34b0ba37b960b91b606082015260800190565b60405180910390a35050505050505050505050505050565b5f80546001600160a01b038381166001600160a01b0319831681178455604051919092169283917f8be0079c531659141344cd1fd0a4f28419497f9722a3daafe3b4186f6b6457e09190a35050565b6122638484848460016123e4565b6107d457604051635274afe760e01b81526001600160a01b0385166004820152602401611959565b5f805f806122998686612451565b9250925092506122a9828261249a565b5090949350505050565b5f8060045484670de0b6b3a76400006122cc9190612e1b565b6122d69190612e32565b6122e890670de0b6b3a7640000612c1d565b905060055460020361232f57670de0b6b3a764000080826123098187612e1b565b6123139190612e1b565b61231d9190612e32565b6123279190612e32565b91505061066e565b60055460010361234c57670de0b6b3a764000061231d8285612e1b565b670de0b6b3a76400005f5b60055481101561238857670de0b6b3a76400006123748484612e1b565b61237e9190612e32565b9150600101612357565b50670de0b6b3a764000061239c8286612e1b565b6123a69190612e32565b9250505061066e565b6123bc8383836001612556565b611be257604051635274afe760e01b81526001600160a01b0384166004820152602401611959565b6040516323b872dd60e01b5f8181526001600160a01b038781166004528616602452604485905291602083606481808c5af1925060015f51148316612440578383151615612434573d5f823e3d81fd5b5f883b113d1516831692505b604052505f60605295945050505050565b5f805f8351604103612488576020840151604085015160608601515f1a61247a888285856125b8565b955095509550505050612493565b505081515f91506002905b9250925092565b5f8260038111156124ad576124ad612a29565b036124b6575050565b60018260038111156124ca576124ca612a29565b036124e85760405163f645eedf60e01b815260040160405180910390fd5b60028260038111156124fc576124fc612a29565b0361251d5760405163fce698f760e01b815260048101829052602401611959565b600382600381111561253157612531612a29565b03612552576040516335e2f38360e21b815260048101829052602401611959565b5050565b60405163a9059cbb60e01b5f8181526001600160a01b038616600452602485905291602083604481808b5af1925060015f511483166125ac5783831516156125a0573d5f823e3d81fd5b5f873b113d1516831692505b60405250949350505050565b5f80807f7fffffffffffffffffffffffffffffff5d576e7357a4501ddfe92f46681b20a08411156125f157505f91506003905082612676565b604080515f808252602082018084528a905260ff891692820192909252606081018790526080810186905260019060a0016020604051602081039080840390855afa158015612642573d5f803e3d5ffd5b5050604051601f1901519150506001600160a01b03811661266d57505f925060019150829050612676565b92505f91508190505b9450945094915050565b6040518061016001604052805f6001600160a01b0316815260200160608152602001606081526020015f81526020015f81526020015f81526020015f81526020015f81526020015f81526020015f60038111156126df576126df612a29565b81525f60209091015290565b5f80604083850312156126fc575f80fd5b50508035926020909101359150565b5f81518084525f5b8181101561272f57602081850181015186830182015201612713565b505f602082860101526020601f19601f83011685010191505092915050565b6001600160a01b038616815260a0602082018190525f906127719083018761270b565b6040830195909552509115156060830152151560809091015292915050565b5f602082840312156127a0575f80fd5b5035919050565b5f815180845260208085019450602084015f5b838110156127d6578151875295820195908201906001016127ba565b509495945050505050565b602081525f61066b60208301846127a7565b80356001600160a01b0381168114612809575f80fd5b919050565b5f6020828403121561281e575f80fd5b61066b826127f3565b5f805f60608486031215612839575f80fd5b505081359360208301359350604090920135919050565b602080825282516001600160a01b03168282015282015160a060408301525f9061287d60c084018261270b565b9050604084015160608401526060840151151560808401526080840151151560a08401528091505092915050565b5f8083601f8401126128bb575f80fd5b50813567ffffffffffffffff8111156128d2575f80fd5b6020830191508360208285010111156128e9575f80fd5b9250929050565b5f805f805f805f60a0888a031215612906575f80fd5b873567ffffffffffffffff8082111561291d575f80fd5b6129298b838c016128ab565b909950975060208a0135915080821115612941575f80fd5b5061294e8a828b016128ab565b989b979a50986040810135976060820135975060809091013595509350505050565b604081525f61298260408301856127a7565b828103602084015261299481856127a7565b95945050505050565b5f805f805f80608087890312156129b2575f80fd5b86359550602087013567ffffffffffffffff808211156129d0575f80fd5b6129dc8a838b016128ab565b90975095506040890135915081151582146129f5575f80fd5b90935060608801359080821115612a0a575f80fd5b50612a1789828a016128ab565b979a9699509497509295939492505050565b634e487b7160e01b5f52602160045260245ffd5b60048110612a5957634e487b7160e01b5f52602160045260245ffd5b9052565b6001600160a01b038c168152610160602082018190525f90612a818382018e61270b565b90508281036040840152612a95818d61270b565b9150508960608301528860808301528760a08301528660c08301528560e083015284610100830152612acb610120830185612a3d565b8215156101408301529c9b505050505050505050505050565b60208152612afe6020820183516001600160a01b03169052565b5f6020830151610160806040850152612b1b61018085018361270b565b91506040850151601f19858403016060860152612b38838261270b565b92505060608501516080850152608085015160a085015260a085015160c085015260c085015160e085015260e0850151610100818187015280870151915050610120818187015280870151915050610140612b9581870183612a3d565b90950151151593019290925250919050565b5f8060408385031215612bb8575f80fd5b82359150612bc8602084016127f3565b90509250929050565b600181811c90821680612be557607f821691505b602082108103612c0357634e487b7160e01b5f52602260045260245ffd5b50919050565b634e487b7160e01b5f52601160045260245ffd5b8082018082111561066e5761066e612c09565b5f60018201612c4157612c41612c09565b5060010190565b634e487b7160e01b5f52604160045260245ffd5b601f821115611be257805f5260205f20601f840160051c81016020851015612c815750805b601f840160051c820191505b81811015612ca0575f8155600101612c8d565b5050505050565b815167ffffffffffffffff811115612cc157612cc1612c48565b612cd581612ccf8454612bd1565b84612c5c565b602080601f831160018114612d08575f8415612cf15750858301515b5f19600386901b1c1916600185901b178555612d5f565b5f85815260208120601f198616915b82811015612d3657888601518255948401946001909101908401612d17565b5085821015612d5357878501515f19600388901b60f8161c191681555b505060018460011b0185555b505050505050565b81835281816020850137505f828201602090810191909152601f909101601f19169091010190565b608081525f612da2608083018789612d67565b602083019590955250604081019290925260609091015292915050565b634e487b7160e01b5f52603260045260245ffd5b8481528284602083013790151560f81b9101602081019190915260210192915050565b604081525f612e09604083018587612d67565b90508215156020830152949350505050565b808202811582820484141761066e5761066e612c09565b5f82612e4c57634e487b7160e01b5f52601260045260245ffd5b500490565b8181038181111561066e5761066e612c0956fe712a125cff0ee897af77cf5991ec0c7992adfb1b62a7fa10879ff4b9cdb2a24aa26469706673582212206f323eb725154eec40bfbf455eafed43fdfc5ef2592a82a91faabab39123426a64736f6c63430008180033","linkReferences":{}},"methodIdentifiers":{"DEFAULT_ENTRY_DURATION()":"e1e1ed5a","DEFAULT_ENTRY_FEE()":"cff4cc31","DEFAULT_VOTE_DURATION()":"26f4c776","FIRST_PLACE_BPS()":"a4b9328b","INITIATOR_BPS()":"ab8c9f8d","MARKET_CREATION_FEE()":"0a6f8981","MIN_ENTRIES_TO_PROCEED()":"977a5c47","SECOND_PLACE_BPS()":"97874124","STAKERS_BPS()":"a04941a2","THIRD_PLACE_BPS()":"c03eee32","burnAddress()":"70d5ae05","calculateVoteCost(uint256,uint256)":"bd2ea63f","createMarket(string,string,uint256,uint256,uint256)":"9bd1d513","curveExponent()":"2a9795cd","curveParam()":"324578f8","emberToken()":"0cae9d5e","entries(uint256,uint256)":"17b937e6","getCurrentVotePrice(uint256,uint256)":"28cd26dc","getEntry(uint256,uint256)":"98ba676d","getLeaderboard(uint256)":"a34b46fe","getMarket(uint256)":"eb44fdd3","getMarketEntries(uint256)":"19a51a31","marketCount()":"ec979082","marketEntryIds(uint256,uint256)":"bc3ee2b9","markets(uint256)":"b1283e77","oracle()":"7dc0d1d0","owner()":"8da5cb5b","renounceOwnership()":"715018a6","resolve(uint256)":"4f896d4f","setBurnAddress(address)":"4b0e7216","setCurveParams(uint256,uint256)":"a06dbfa3","setOracle(address)":"7adbf973","setStakingDrip(address)":"dc6f7c57","stakingDrip()":"5c2e1f2a","submitEntry(uint256,string,bool,bytes)":"a5d6fb1f","transferOwnership(address)":"f2fde38b","userVotes(uint256,address)":"fe5b3e3b","vote(uint256,uint256,uint256)":"8a6655d6"}}}}}