{"abi":[{"type":"constructor","inputs":[{"name":"_arena","type":"address","internalType":"address"},{"name":"_kyberRouter","type":"address","internalType":"address"}],"stateMutability":"nonpayable"},{"type":"receive","stateMutability":"payable"},{"type":"function","name":"MAX_SLIPPAGE_BPS","inputs":[],"outputs":[{"name":"","type":"uint256","internalType":"uint256"}],"stateMutability":"view"},{"type":"function","name":"arena","inputs":[],"outputs":[{"name":"","type":"address","internalType":"contract IEmberVoteArena"}],"stateMutability":"view"},{"type":"function","name":"ember","inputs":[],"outputs":[{"name":"","type":"address","internalType":"contract IERC20"}],"stateMutability":"view"},{"type":"function","name":"getExpectedEmber","inputs":[{"name":"marketId","type":"uint256","internalType":"uint256"},{"name":"voteAmount","type":"uint256","internalType":"uint256"}],"outputs":[{"name":"emberNeeded","type":"uint256","internalType":"uint256"}],"stateMutability":"view"},{"type":"function","name":"kyberRouter","inputs":[],"outputs":[{"name":"","type":"address","internalType":"contract IKyberRouter"}],"stateMutability":"view"},{"type":"function","name":"owner","inputs":[],"outputs":[{"name":"","type":"address","internalType":"address"}],"stateMutability":"view"},{"type":"function","name":"renounceOwnership","inputs":[],"outputs":[],"stateMutability":"nonpayable"},{"type":"function","name":"rescueTokens","inputs":[{"name":"token","type":"address","internalType":"address"},{"name":"amount","type":"uint256","internalType":"uint256"}],"outputs":[],"stateMutability":"nonpayable"},{"type":"function","name":"setKyberRouter","inputs":[{"name":"newRouter","type":"address","internalType":"address"}],"outputs":[],"stateMutability":"nonpayable"},{"type":"function","name":"transferOwnership","inputs":[{"name":"newOwner","type":"address","internalType":"address"}],"outputs":[],"stateMutability":"nonpayable"},{"type":"function","name":"zapAndCreateMarket","inputs":[{"name":"tokenIn","type":"address","internalType":"address"},{"name":"amountIn","type":"uint256","internalType":"uint256"},{"name":"minEmberOut","type":"uint256","internalType":"uint256"},{"name":"title","type":"string","internalType":"string"},{"name":"rules","type":"string","internalType":"string"},{"name":"entryCost","type":"uint256","internalType":"uint256"},{"name":"entryDuration","type":"uint256","internalType":"uint256"},{"name":"voteDuration","type":"uint256","internalType":"uint256"},{"name":"kyberData","type":"bytes","internalType":"bytes"}],"outputs":[{"name":"marketId","type":"uint256","internalType":"uint256"}],"stateMutability":"payable"},{"type":"function","name":"zapAndSubmitEntry","inputs":[{"name":"tokenIn","type":"address","internalType":"address"},{"name":"amountIn","type":"uint256","internalType":"uint256"},{"name":"minEmberOut","type":"uint256","internalType":"uint256"},{"name":"marketId","type":"uint256","internalType":"uint256"},{"name":"data","type":"string","internalType":"string"},{"name":"approved","type":"bool","internalType":"bool"},{"name":"signature","type":"bytes","internalType":"bytes"},{"name":"kyberData","type":"bytes","internalType":"bytes"}],"outputs":[{"name":"entryId","type":"uint256","internalType":"uint256"}],"stateMutability":"payable"},{"type":"function","name":"zapAndVote","inputs":[{"name":"tokenIn","type":"address","internalType":"address"},{"name":"amountIn","type":"uint256","internalType":"uint256"},{"name":"minEmberOut","type":"uint256","internalType":"uint256"},{"name":"marketId","type":"uint256","internalType":"uint256"},{"name":"entryId","type":"uint256","internalType":"uint256"},{"name":"voteAmount","type":"uint256","internalType":"uint256"},{"name":"kyberData","type":"bytes","internalType":"bytes"}],"outputs":[],"stateMutability":"payable"},{"type":"event","name":"OwnershipTransferred","inputs":[{"name":"previousOwner","type":"address","indexed":true,"internalType":"address"},{"name":"newOwner","type":"address","indexed":true,"internalType":"address"}],"anonymous":false},{"type":"event","name":"ZapAndCreateMarket","inputs":[{"name":"user","type":"address","indexed":true,"internalType":"address"},{"name":"tokenIn","type":"address","indexed":true,"internalType":"address"},{"name":"amountIn","type":"uint256","indexed":false,"internalType":"uint256"},{"name":"emberReceived","type":"uint256","indexed":false,"internalType":"uint256"},{"name":"marketId","type":"uint256","indexed":false,"internalType":"uint256"}],"anonymous":false},{"type":"event","name":"ZapAndSubmitEntry","inputs":[{"name":"user","type":"address","indexed":true,"internalType":"address"},{"name":"tokenIn","type":"address","indexed":true,"internalType":"address"},{"name":"amountIn","type":"uint256","indexed":false,"internalType":"uint256"},{"name":"emberReceived","type":"uint256","indexed":false,"internalType":"uint256"},{"name":"marketId","type":"uint256","indexed":false,"internalType":"uint256"},{"name":"entryId","type":"uint256","indexed":false,"internalType":"uint256"}],"anonymous":false},{"type":"event","name":"ZapAndVote","inputs":[{"name":"user","type":"address","indexed":true,"internalType":"address"},{"name":"tokenIn","type":"address","indexed":true,"internalType":"address"},{"name":"amountIn","type":"uint256","indexed":false,"internalType":"uint256"},{"name":"emberReceived","type":"uint256","indexed":false,"internalType":"uint256"},{"name":"marketId","type":"uint256","indexed":false,"internalType":"uint256"},{"name":"entryId","type":"uint256","indexed":false,"internalType":"uint256"},{"name":"votes","type":"uint256","indexed":false,"internalType":"uint256"}],"anonymous":false},{"type":"error","name":"InsufficientOutput","inputs":[]},{"type":"error","name":"OwnableInvalidOwner","inputs":[{"name":"owner","type":"address","internalType":"address"}]},{"type":"error","name":"OwnableUnauthorizedAccount","inputs":[{"name":"account","type":"address","internalType":"address"}]},{"type":"error","name":"SafeERC20FailedOperation","inputs":[{"name":"token","type":"address","internalType":"address"}]},{"type":"error","name":"SlippageTooHigh","inputs":[]},{"type":"error","name":"SwapFailed","inputs":[]},{"type":"error","name":"TransferFailed","inputs":[]}],"bytecode":{"object":"0x60c060405234801562000010575f80fd5b50604051620016d6380380620016d6833981016040819052620000339162000168565b33806200005957604051631e4fbdf760e01b81525f600482015260240160405180910390fd5b620000648162000101565b506001600160a01b0382166080819052604080516306574eaf60e11b81529051630cae9d5e916004808201926020929091908290030181865afa158015620000ae573d5f803e3d5ffd5b505050506040513d601f19601f82011682018060405250810190620000d49190620001a5565b6001600160a01b0390811660a052600180546001600160a01b0319169290911691909117905550620001ca565b5f80546001600160a01b038381166001600160a01b0319831681178455604051919092169283917f8be0079c531659141344cd1fd0a4f28419497f9722a3daafe3b4186f6b6457e09190a35050565b6001600160a01b038116811462000165575f80fd5b50565b5f80604083850312156200017a575f80fd5b8251620001878162000150565b60208401519092506200019a8162000150565b809150509250929050565b5f60208284031215620001b6575f80fd5b8151620001c38162000150565b9392505050565b60805160a05161146c6200026a5f395f8181610104015281816102d101528181610622015281816107eb0152818161098f015281816109d301528181610ad801528181610b8701528181610c2a01528181610cb301528181610d730152610df901525f81816102570152818161029f015281816103550152818161045e015281816105f0015281816106a6015281816107b9015261087c015261146c5ff3fe6080604052600436106100c2575f3560e01c80638da5cb5b1161007c578063e229cd7611610057578063e229cd76146101f3578063f2fde38b14610208578063f63ca6e414610227578063fd3705f914610246575f80fd5b80638da5cb5b146101b157806391649102146101cd578063b74b8fa4146101e0575f80fd5b80631d53e9dd146100cd5780631f1b9a7c146100f3578063499cd0031461013e578063573761981461015d578063715018a61461017e5780638b33203c14610192575f80fd5b366100c957005b5f80fd5b6100e06100db36600461103b565b610279565b6040519081526020015b60405180910390f35b3480156100fe575f80fd5b506101267f000000000000000000000000000000000000000000000000000000000000000081565b6040516001600160a01b0390911681526020016100ea565b348015610149575f80fd5b506100e0610158366004611121565b61043f565b348015610168575f80fd5b5061017c610177366004611141565b6104d8565b005b348015610189575f80fd5b5061017c61058d565b34801561019d575f80fd5b5061017c6101ac366004611169565b6105a0565b3480156101bc575f80fd5b505f546001600160a01b0316610126565b6100e06101db36600461119a565b6105ca565b61017c6101ee36600461126f565b610794565b3480156101fe575f80fd5b506100e06103e881565b348015610213575f80fd5b5061017c610222366004611169565b61094a565b348015610232575f80fd5b50600154610126906001600160a01b031681565b348015610251575f80fd5b506101267f000000000000000000000000000000000000000000000000000000000000000081565b5f806102888e8e8e878761098c565b60405163095ea7b360e01b81526001600160a01b037f000000000000000000000000000000000000000000000000000000000000000081166004830152602482018390529192507f00000000000000000000000000000000000000000000000000000000000000009091169063095ea7b3906044016020604051808303815f875af1158015610319573d5f803e3d5ffd5b505050506040513d601f19601f8201168201806040525081019061033d91906112ed565b50604051639bd1d51360e01b81526001600160a01b037f00000000000000000000000000000000000000000000000000000000000000001690639bd1d51390610396908e908e908e908e908e908e908e90600401611337565b6020604051808303815f875af11580156103b2573d5f803e3d5ffd5b505050506040513d601f19601f820116820180604052508101906103d6919061137d565b91506103e0610d5c565b604080518e8152602081018390529081018390526001600160a01b038f169033907f8156825d40f5965ddbfae6804b1871def60ae4ebaee17ca2441de3361083b0399060600160405180910390a3509c9b505050505050505050505050565b604051630a3349b760e21b815260048101839052602481018290525f907f00000000000000000000000000000000000000000000000000000000000000006001600160a01b0316906328cd26dc90604401602060405180830381865afa1580156104ab573d5f803e3d5ffd5b505050506040513d601f19601f820116820180604052508101906104cf919061137d565b90505b92915050565b6104e0610e20565b6001600160a01b038216610564575f80546040516001600160a01b039091169083908381818185875af1925050503d805f8114610538576040519150601f19603f3d011682016040523d82523d5f602084013e61053d565b606091505b505090508061055f576040516312171d8360e31b815260040160405180910390fd5b505050565b6105896105785f546001600160a01b031690565b6001600160a01b0384169083610e4c565b5050565b610595610e20565b61059e5f610e81565b565b6105a8610e20565b600180546001600160a01b0319166001600160a01b0392909216919091179055565b5f806105d98d8d8d878761098c565b60405163095ea7b360e01b81526001600160a01b037f000000000000000000000000000000000000000000000000000000000000000081166004830152602482018390529192507f00000000000000000000000000000000000000000000000000000000000000009091169063095ea7b3906044016020604051808303815f875af115801561066a573d5f803e3d5ffd5b505050506040513d601f19601f8201168201806040525081019061068e91906112ed565b5060405163a5d6fb1f60e01b81526001600160a01b037f0000000000000000000000000000000000000000000000000000000000000000169063a5d6fb1f906106e5908d908d908d908d908d908d90600401611394565b6020604051808303815f875af1158015610701573d5f803e3d5ffd5b505050506040513d601f19601f82011682018060405250810190610725919061137d565b915061072f610d5c565b604080518d8152602081018390529081018b9052606081018390526001600160a01b038e169033907f35dc3c7195d0a657efdcfcd4376b209a25c6cfd359593ecc1709e6c0f877809d9060800160405180910390a3509b9a5050505050505050505050565b5f6107a2898989868661098c565b60405163095ea7b360e01b81526001600160a01b037f000000000000000000000000000000000000000000000000000000000000000081166004830152602482018390529192507f00000000000000000000000000000000000000000000000000000000000000009091169063095ea7b3906044016020604051808303815f875af1158015610833573d5f803e3d5ffd5b505050506040513d601f19601f8201168201806040525081019061085791906112ed565b506040516345332aeb60e11b81526004810187905260248101869052604481018590527f00000000000000000000000000000000000000000000000000000000000000006001600160a01b031690638a6655d6906064015f604051808303815f87803b1580156108c5575f80fd5b505af11580156108d7573d5f803e3d5ffd5b505050506108e3610d5c565b604080518981526020810183905290810187905260608101869052608081018590526001600160a01b038a169033907fbcaa8354abfa1552491860749befd4efa1304404a47eed7744a8f922959d8ad99060a00160405180910390a3505050505050505050565b610952610e20565b6001600160a01b03811661098057604051631e4fbdf760e01b81525f60048201526024015b60405180910390fd5b61098981610e81565b50565b5f7f00000000000000000000000000000000000000000000000000000000000000006001600160a01b0316866001600160a01b031603610a02576109fb6001600160a01b037f000000000000000000000000000000000000000000000000000000000000000016333088610ed0565b5083610d53565b6001600160a01b038616610a365784341015610a315760405163bb2875c360e01b815260040160405180910390fd5b610ac1565b610a4b6001600160a01b038716333088610ed0565b60015460405163095ea7b360e01b81526001600160a01b039182166004820152602481018790529087169063095ea7b3906044016020604051808303815f875af1158015610a9b573d5f803e3d5ffd5b505050506040513d601f19601f82011682018060405250810190610abf91906112ed565b505b6040516370a0823160e01b81523060048201525f907f00000000000000000000000000000000000000000000000000000000000000006001600160a01b0316906370a0823190602401602060405180830381865afa158015610b25573d5f803e3d5ffd5b505050506040513d601f19601f82011682018060405250810190610b49919061137d565b90506001600160a01b038716610bfe57600154604051632dda511760e01b81526001600160a01b0390911690632dda5117908890610bb7908b9083907f0000000000000000000000000000000000000000000000000000000000000000908c9030908d908d906004016113d5565b60206040518083038185885af1158015610bd3573d5f803e3d5ffd5b50505050506040513d601f19601f82011682018060405250810190610bf8919061137d565b50610c9c565b600154604051632dda511760e01b81526001600160a01b0390911690632dda511790610c5a908a908a907f0000000000000000000000000000000000000000000000000000000000000000908b9030908c908c906004016113d5565b6020604051808303815f875af1158015610c76573d5f803e3d5ffd5b505050506040513d601f19601f82011682018060405250810190610c9a919061137d565b505b6040516370a0823160e01b815230600482015281907f00000000000000000000000000000000000000000000000000000000000000006001600160a01b0316906370a0823190602401602060405180830381865afa158015610d00573d5f803e3d5ffd5b505050506040513d601f19601f82011682018060405250810190610d24919061137d565b610d2e9190611417565b915084821015610d515760405163428637bb60e11b815260040160405180910390fd5b505b95945050505050565b6040516370a0823160e01b81523060048201525f907f00000000000000000000000000000000000000000000000000000000000000006001600160a01b0316906370a0823190602401602060405180830381865afa158015610dc0573d5f803e3d5ffd5b505050506040513d601f19601f82011682018060405250810190610de4919061137d565b90508015610989576109896001600160a01b037f0000000000000000000000000000000000000000000000000000000000000000163383610e4c565b5f546001600160a01b0316331461059e5760405163118cdaa760e01b8152336004820152602401610977565b610e598383836001610f0c565b61055f57604051635274afe760e01b81526001600160a01b0384166004820152602401610977565b5f80546001600160a01b038381166001600160a01b0319831681178455604051919092169283917f8be0079c531659141344cd1fd0a4f28419497f9722a3daafe3b4186f6b6457e09190a35050565b610ede848484846001610f6e565b610f0657604051635274afe760e01b81526001600160a01b0385166004820152602401610977565b50505050565b60405163a9059cbb60e01b5f8181526001600160a01b038616600452602485905291602083604481808b5af1925060015f51148316610f62578383151615610f56573d5f823e3d81fd5b5f873b113d1516831692505b60405250949350505050565b6040516323b872dd60e01b5f8181526001600160a01b038781166004528616602452604485905291602083606481808c5af1925060015f51148316610fca578383151615610fbe573d5f823e3d81fd5b5f883b113d1516831692505b604052505f60605295945050505050565b80356001600160a01b0381168114610ff1575f80fd5b919050565b5f8083601f840112611006575f80fd5b50813567ffffffffffffffff81111561101d575f80fd5b602083019150836020828501011115611034575f80fd5b9250929050565b5f805f805f805f805f805f806101208d8f031215611057575f80fd5b6110608d610fdb565b9b5060208d01359a5060408d0135995067ffffffffffffffff60608e01351115611088575f80fd5b6110988e60608f01358f01610ff6565b909950975067ffffffffffffffff60808e013511156110b5575f80fd5b6110c58e60808f01358f01610ff6565b909750955060a08d0135945060c08d0135935060e08d0135925067ffffffffffffffff6101008e013511156110f8575f80fd5b6111098e6101008f01358f01610ff6565b81935080925050509295989b509295989b509295989b565b5f8060408385031215611132575f80fd5b50508035926020909101359150565b5f8060408385031215611152575f80fd5b61115b83610fdb565b946020939093013593505050565b5f60208284031215611179575f80fd5b6104cf82610fdb565b8015158114610989575f80fd5b8035610ff181611182565b5f805f805f805f805f805f6101008c8e0312156111b5575f80fd5b6111be8c610fdb565b9a5060208c0135995060408c0135985060608c0135975067ffffffffffffffff8060808e013511156111ee575f80fd5b6111fe8e60808f01358f01610ff6565b909850965061120f60a08e0161118f565b95508060c08e01351115611221575f80fd5b6112318e60c08f01358f01610ff6565b909550935060e08d0135811015611246575f80fd5b506112578d60e08e01358e01610ff6565b81935080925050509295989b509295989b9093969950565b5f805f805f805f8060e0898b031215611286575f80fd5b61128f89610fdb565b97506020890135965060408901359550606089013594506080890135935060a0890135925060c089013567ffffffffffffffff8111156112cd575f80fd5b6112d98b828c01610ff6565b999c989b5096995094979396929594505050565b5f602082840312156112fd575f80fd5b815161130881611182565b9392505050565b81835281816020850137505f828201602090810191909152601f909101601f19169091010190565b60a081525f61134a60a08301898b61130f565b828103602084015261135d81888a61130f565b604084019690965250506060810192909252608090910152949350505050565b5f6020828403121561138d575f80fd5b5051919050565b868152608060208201525f6113ad60808301878961130f565b851515604084015282810360608401526113c881858761130f565b9998505050505050505050565b6001600160a01b038881168252602082018890528681166040830152606082018690528416608082015260c060a082018190525f906113c8908301848661130f565b818103818111156104d257634e487b7160e01b5f52601160045260245ffdfea264697066735822122038e75473015b19959f7384d7c738836aa45ce0f57a13dedbdf0d904a1bdd50d564736f6c63430008180033","linkReferences":{}},"methodIdentifiers":{"MAX_SLIPPAGE_BPS()":"e229cd76","arena()":"fd3705f9","ember()":"1f1b9a7c","getExpectedEmber(uint256,uint256)":"499cd003","kyberRouter()":"f63ca6e4","owner()":"8da5cb5b","renounceOwnership()":"715018a6","rescueTokens(address,uint256)":"57376198","setKyberRouter(address)":"8b33203c","transferOwnership(address)":"f2fde38b","zapAndCreateMarket(address,uint256,uint256,string,string,uint256,uint256,uint256,bytes)":"1d53e9dd","zapAndSubmitEntry(address,uint256,uint256,uint256,string,bool,bytes,bytes)":"91649102","zapAndVote(address,uint256,uint256,uint256,uint256,uint256,bytes)":"b74b8fa4"},"id":36}