{"abi":[{"type":"constructor","inputs":[{"name":"_arena","type":"address","internalType":"address"},{"name":"_kyberRouter","type":"address","internalType":"address"}],"stateMutability":"nonpayable"},{"type":"receive","stateMutability":"payable"},{"type":"function","name":"MAX_SLIPPAGE_BPS","inputs":[],"outputs":[{"name":"","type":"uint256","internalType":"uint256"}],"stateMutability":"view"},{"type":"function","name":"arena","inputs":[],"outputs":[{"name":"","type":"address","internalType":"contract IEmberVoteArena"}],"stateMutability":"view"},{"type":"function","name":"ember","inputs":[],"outputs":[{"name":"","type":"address","internalType":"contract IERC20"}],"stateMutability":"view"},{"type":"function","name":"getExpectedEmber","inputs":[{"name":"marketId","type":"uint256","internalType":"uint256"},{"name":"voteAmount","type":"uint256","internalType":"uint256"}],"outputs":[{"name":"emberNeeded","type":"uint256","internalType":"uint256"}],"stateMutability":"view"},{"type":"function","name":"kyberRouter","inputs":[],"outputs":[{"name":"","type":"address","internalType":"contract IKyberRouter"}],"stateMutability":"view"},{"type":"function","name":"owner","inputs":[],"outputs":[{"name":"","type":"address","internalType":"address"}],"stateMutability":"view"},{"type":"function","name":"renounceOwnership","inputs":[],"outputs":[],"stateMutability":"nonpayable"},{"type":"function","name":"rescueTokens","inputs":[{"name":"token","type":"address","internalType":"address"},{"name":"amount","type":"uint256","internalType":"uint256"}],"outputs":[],"stateMutability":"nonpayable"},{"type":"function","name":"setKyberRouter","inputs":[{"name":"newRouter","type":"address","internalType":"address"}],"outputs":[],"stateMutability":"nonpayable"},{"type":"function","name":"transferOwnership","inputs":[{"name":"newOwner","type":"address","internalType":"address"}],"outputs":[],"stateMutability":"nonpayable"},{"type":"function","name":"zapAndCreateMarket","inputs":[{"name":"tokenIn","type":"address","internalType":"address"},{"name":"amountIn","type":"uint256","internalType":"uint256"},{"name":"minEmberOut","type":"uint256","internalType":"uint256"},{"name":"title","type":"string","internalType":"string"},{"name":"rules","type":"string","internalType":"string"},{"name":"entryCost","type":"uint256","internalType":"uint256"},{"name":"entryDuration","type":"uint256","internalType":"uint256"},{"name":"voteDuration","type":"uint256","internalType":"uint256"},{"name":"kyberData","type":"bytes","internalType":"bytes"}],"outputs":[{"name":"marketId","type":"uint256","internalType":"uint256"}],"stateMutability":"payable"},{"type":"function","name":"zapAndSubmitEntry","inputs":[{"name":"tokenIn","type":"address","internalType":"address"},{"name":"amountIn","type":"uint256","internalType":"uint256"},{"name":"minEmberOut","type":"uint256","internalType":"uint256"},{"name":"marketId","type":"uint256","internalType":"uint256"},{"name":"data","type":"string","internalType":"string"},{"name":"approved","type":"bool","internalType":"bool"},{"name":"signature","type":"bytes","internalType":"bytes"},{"name":"kyberData","type":"bytes","internalType":"bytes"}],"outputs":[{"name":"entryId","type":"uint256","internalType":"uint256"}],"stateMutability":"payable"},{"type":"function","name":"zapAndVote","inputs":[{"name":"tokenIn","type":"address","internalType":"address"},{"name":"amountIn","type":"uint256","internalType":"uint256"},{"name":"minEmberOut","type":"uint256","internalType":"uint256"},{"name":"marketId","type":"uint256","internalType":"uint256"},{"name":"entryId","type":"uint256","internalType":"uint256"},{"name":"voteAmount","type":"uint256","internalType":"uint256"},{"name":"kyberData","type":"bytes","internalType":"bytes"}],"outputs":[],"stateMutability":"payable"},{"type":"event","name":"OwnershipTransferred","inputs":[{"name":"previousOwner","type":"address","indexed":true,"internalType":"address"},{"name":"newOwner","type":"address","indexed":true,"internalType":"address"}],"anonymous":false},{"type":"event","name":"ZapAndCreateMarket","inputs":[{"name":"user","type":"address","indexed":true,"internalType":"address"},{"name":"tokenIn","type":"address","indexed":true,"internalType":"address"},{"name":"amountIn","type":"uint256","indexed":false,"internalType":"uint256"},{"name":"emberReceived","type":"uint256","indexed":false,"internalType":"uint256"},{"name":"marketId","type":"uint256","indexed":false,"internalType":"uint256"}],"anonymous":false},{"type":"event","name":"ZapAndSubmitEntry","inputs":[{"name":"user","type":"address","indexed":true,"internalType":"address"},{"name":"tokenIn","type":"address","indexed":true,"internalType":"address"},{"name":"amountIn","type":"uint256","indexed":false,"internalType":"uint256"},{"name":"emberReceived","type":"uint256","indexed":false,"internalType":"uint256"},{"name":"marketId","type":"uint256","indexed":false,"internalType":"uint256"},{"name":"entryId","type":"uint256","indexed":false,"internalType":"uint256"}],"anonymous":false},{"type":"event","name":"ZapAndVote","inputs":[{"name":"user","type":"address","indexed":true,"internalType":"address"},{"name":"tokenIn","type":"address","indexed":true,"internalType":"address"},{"name":"amountIn","type":"uint256","indexed":false,"internalType":"uint256"},{"name":"emberReceived","type":"uint256","indexed":false,"internalType":"uint256"},{"name":"marketId","type":"uint256","indexed":false,"internalType":"uint256"},{"name":"entryId","type":"uint256","indexed":false,"internalType":"uint256"},{"name":"votes","type":"uint256","indexed":false,"internalType":"uint256"}],"anonymous":false},{"type":"error","name":"InsufficientOutput","inputs":[]},{"type":"error","name":"OwnableInvalidOwner","inputs":[{"name":"owner","type":"address","internalType":"address"}]},{"type":"error","name":"OwnableUnauthorizedAccount","inputs":[{"name":"account","type":"address","internalType":"address"}]},{"type":"error","name":"SafeERC20FailedOperation","inputs":[{"name":"token","type":"address","internalType":"address"}]},{"type":"error","name":"SlippageTooHigh","inputs":[]},{"type":"error","name":"SwapFailed","inputs":[]}],"bytecode":{"object":"0x60c060405234801562000010575f80fd5b506040516200169b3803806200169b833981016040819052620000339162000168565b33806200005957604051631e4fbdf760e01b81525f600482015260240160405180910390fd5b620000648162000101565b506001600160a01b0382166080819052604080516306574eaf60e11b81529051630cae9d5e916004808201926020929091908290030181865afa158015620000ae573d5f803e3d5ffd5b505050506040513d601f19601f82011682018060405250810190620000d49190620001a5565b6001600160a01b0390811660a052600180546001600160a01b0319169290911691909117905550620001ca565b5f80546001600160a01b038381166001600160a01b0319831681178455604051919092169283917f8be0079c531659141344cd1fd0a4f28419497f9722a3daafe3b4186f6b6457e09190a35050565b6001600160a01b038116811462000165575f80fd5b50565b5f80604083850312156200017a575f80fd5b8251620001878162000150565b60208401519092506200019a8162000150565b809150509250929050565b5f60208284031215620001b6575f80fd5b8151620001c38162000150565b9392505050565b60805160a0516114316200026a5f395f8181610104015281816102d1015281816105e7015281816107b0015281816109540152818161099801528181610a9d01528181610b4c01528181610bef01528181610c7801528181610d380152610dbe01525f81816102570152818161029f015281816103550152818161045e015281816105b50152818161066b0152818161077e015261084101526114315ff3fe6080604052600436106100c2575f3560e01c80638da5cb5b1161007c578063e229cd7611610057578063e229cd76146101f3578063f2fde38b14610208578063f63ca6e414610227578063fd3705f914610246575f80fd5b80638da5cb5b146101b157806391649102146101cd578063b74b8fa4146101e0575f80fd5b80631d53e9dd146100cd5780631f1b9a7c146100f3578063499cd0031461013e578063573761981461015d578063715018a61461017e5780638b33203c14610192575f80fd5b366100c957005b5f80fd5b6100e06100db366004611000565b610279565b6040519081526020015b60405180910390f35b3480156100fe575f80fd5b506101267f000000000000000000000000000000000000000000000000000000000000000081565b6040516001600160a01b0390911681526020016100ea565b348015610149575f80fd5b506100e06101583660046110e6565b61043f565b348015610168575f80fd5b5061017c610177366004611106565b6104d8565b005b348015610189575f80fd5b5061017c610552565b34801561019d575f80fd5b5061017c6101ac36600461112e565b610565565b3480156101bc575f80fd5b505f546001600160a01b0316610126565b6100e06101db36600461115f565b61058f565b61017c6101ee366004611234565b610759565b3480156101fe575f80fd5b506100e06103e881565b348015610213575f80fd5b5061017c61022236600461112e565b61090f565b348015610232575f80fd5b50600154610126906001600160a01b031681565b348015610251575f80fd5b506101267f000000000000000000000000000000000000000000000000000000000000000081565b5f806102888e8e8e8787610951565b60405163095ea7b360e01b81526001600160a01b037f000000000000000000000000000000000000000000000000000000000000000081166004830152602482018390529192507f00000000000000000000000000000000000000000000000000000000000000009091169063095ea7b3906044016020604051808303815f875af1158015610319573d5f803e3d5ffd5b505050506040513d601f19601f8201168201806040525081019061033d91906112b2565b50604051639bd1d51360e01b81526001600160a01b037f00000000000000000000000000000000000000000000000000000000000000001690639bd1d51390610396908e908e908e908e908e908e908e906004016112fc565b6020604051808303815f875af11580156103b2573d5f803e3d5ffd5b505050506040513d601f19601f820116820180604052508101906103d69190611342565b91506103e0610d21565b604080518e8152602081018390529081018390526001600160a01b038f169033907f8156825d40f5965ddbfae6804b1871def60ae4ebaee17ca2441de3361083b0399060600160405180910390a3509c9b505050505050505050505050565b604051630a3349b760e21b815260048101839052602481018290525f907f00000000000000000000000000000000000000000000000000000000000000006001600160a01b0316906328cd26dc90604401602060405180830381865afa1580156104ab573d5f803e3d5ffd5b505050506040513d601f19601f820116820180604052508101906104cf9190611342565b90505b92915050565b6104e0610de5565b6001600160a01b038216610529575f80546040516001600160a01b039091169183156108fc02918491818181858888f19350505050158015610524573d5f803e3d5ffd5b505050565b61054e61053d5f546001600160a01b031690565b6001600160a01b0384169083610e11565b5050565b61055a610de5565b6105635f610e46565b565b61056d610de5565b600180546001600160a01b0319166001600160a01b0392909216919091179055565b5f8061059e8d8d8d8787610951565b60405163095ea7b360e01b81526001600160a01b037f000000000000000000000000000000000000000000000000000000000000000081166004830152602482018390529192507f00000000000000000000000000000000000000000000000000000000000000009091169063095ea7b3906044016020604051808303815f875af115801561062f573d5f803e3d5ffd5b505050506040513d601f19601f8201168201806040525081019061065391906112b2565b5060405163a5d6fb1f60e01b81526001600160a01b037f0000000000000000000000000000000000000000000000000000000000000000169063a5d6fb1f906106aa908d908d908d908d908d908d90600401611359565b6020604051808303815f875af11580156106c6573d5f803e3d5ffd5b505050506040513d601f19601f820116820180604052508101906106ea9190611342565b91506106f4610d21565b604080518d8152602081018390529081018b9052606081018390526001600160a01b038e169033907f35dc3c7195d0a657efdcfcd4376b209a25c6cfd359593ecc1709e6c0f877809d9060800160405180910390a3509b9a5050505050505050505050565b5f6107678989898686610951565b60405163095ea7b360e01b81526001600160a01b037f000000000000000000000000000000000000000000000000000000000000000081166004830152602482018390529192507f00000000000000000000000000000000000000000000000000000000000000009091169063095ea7b3906044016020604051808303815f875af11580156107f8573d5f803e3d5ffd5b505050506040513d601f19601f8201168201806040525081019061081c91906112b2565b506040516345332aeb60e11b81526004810187905260248101869052604481018590527f00000000000000000000000000000000000000000000000000000000000000006001600160a01b031690638a6655d6906064015f604051808303815f87803b15801561088a575f80fd5b505af115801561089c573d5f803e3d5ffd5b505050506108a8610d21565b604080518981526020810183905290810187905260608101869052608081018590526001600160a01b038a169033907fbcaa8354abfa1552491860749befd4efa1304404a47eed7744a8f922959d8ad99060a00160405180910390a3505050505050505050565b610917610de5565b6001600160a01b03811661094557604051631e4fbdf760e01b81525f60048201526024015b60405180910390fd5b61094e81610e46565b50565b5f7f00000000000000000000000000000000000000000000000000000000000000006001600160a01b0316866001600160a01b0316036109c7576109c06001600160a01b037f000000000000000000000000000000000000000000000000000000000000000016333088610e95565b5083610d18565b6001600160a01b0386166109fb57843410156109f65760405163bb2875c360e01b815260040160405180910390fd5b610a86565b610a106001600160a01b038716333088610e95565b60015460405163095ea7b360e01b81526001600160a01b039182166004820152602481018790529087169063095ea7b3906044016020604051808303815f875af1158015610a60573d5f803e3d5ffd5b505050506040513d601f19601f82011682018060405250810190610a8491906112b2565b505b6040516370a0823160e01b81523060048201525f907f00000000000000000000000000000000000000000000000000000000000000006001600160a01b0316906370a0823190602401602060405180830381865afa158015610aea573d5f803e3d5ffd5b505050506040513d601f19601f82011682018060405250810190610b0e9190611342565b90506001600160a01b038716610bc357600154604051632dda511760e01b81526001600160a01b0390911690632dda5117908890610b7c908b9083907f0000000000000000000000000000000000000000000000000000000000000000908c9030908d908d9060040161139a565b60206040518083038185885af1158015610b98573d5f803e3d5ffd5b50505050506040513d601f19601f82011682018060405250810190610bbd9190611342565b50610c61565b600154604051632dda511760e01b81526001600160a01b0390911690632dda511790610c1f908a908a907f0000000000000000000000000000000000000000000000000000000000000000908b9030908c908c9060040161139a565b6020604051808303815f875af1158015610c3b573d5f803e3d5ffd5b505050506040513d601f19601f82011682018060405250810190610c5f9190611342565b505b6040516370a0823160e01b815230600482015281907f00000000000000000000000000000000000000000000000000000000000000006001600160a01b0316906370a0823190602401602060405180830381865afa158015610cc5573d5f803e3d5ffd5b505050506040513d601f19601f82011682018060405250810190610ce99190611342565b610cf391906113dc565b915084821015610d165760405163428637bb60e11b815260040160405180910390fd5b505b95945050505050565b6040516370a0823160e01b81523060048201525f907f00000000000000000000000000000000000000000000000000000000000000006001600160a01b0316906370a0823190602401602060405180830381865afa158015610d85573d5f803e3d5ffd5b505050506040513d601f19601f82011682018060405250810190610da99190611342565b9050801561094e5761094e6001600160a01b037f0000000000000000000000000000000000000000000000000000000000000000163383610e11565b5f546001600160a01b031633146105635760405163118cdaa760e01b815233600482015260240161093c565b610e1e8383836001610ed1565b61052457604051635274afe760e01b81526001600160a01b038416600482015260240161093c565b5f80546001600160a01b038381166001600160a01b0319831681178455604051919092169283917f8be0079c531659141344cd1fd0a4f28419497f9722a3daafe3b4186f6b6457e09190a35050565b610ea3848484846001610f33565b610ecb57604051635274afe760e01b81526001600160a01b038516600482015260240161093c565b50505050565b60405163a9059cbb60e01b5f8181526001600160a01b038616600452602485905291602083604481808b5af1925060015f51148316610f27578383151615610f1b573d5f823e3d81fd5b5f873b113d1516831692505b60405250949350505050565b6040516323b872dd60e01b5f8181526001600160a01b038781166004528616602452604485905291602083606481808c5af1925060015f51148316610f8f578383151615610f83573d5f823e3d81fd5b5f883b113d1516831692505b604052505f60605295945050505050565b80356001600160a01b0381168114610fb6575f80fd5b919050565b5f8083601f840112610fcb575f80fd5b50813567ffffffffffffffff811115610fe2575f80fd5b602083019150836020828501011115610ff9575f80fd5b9250929050565b5f805f805f805f805f805f806101208d8f03121561101c575f80fd5b6110258d610fa0565b9b5060208d01359a5060408d0135995067ffffffffffffffff60608e0135111561104d575f80fd5b61105d8e60608f01358f01610fbb565b909950975067ffffffffffffffff60808e0135111561107a575f80fd5b61108a8e60808f01358f01610fbb565b909750955060a08d0135945060c08d0135935060e08d0135925067ffffffffffffffff6101008e013511156110bd575f80fd5b6110ce8e6101008f01358f01610fbb565b81935080925050509295989b509295989b509295989b565b5f80604083850312156110f7575f80fd5b50508035926020909101359150565b5f8060408385031215611117575f80fd5b61112083610fa0565b946020939093013593505050565b5f6020828403121561113e575f80fd5b6104cf82610fa0565b801515811461094e575f80fd5b8035610fb681611147565b5f805f805f805f805f805f6101008c8e03121561117a575f80fd5b6111838c610fa0565b9a5060208c0135995060408c0135985060608c0135975067ffffffffffffffff8060808e013511156111b3575f80fd5b6111c38e60808f01358f01610fbb565b90985096506111d460a08e01611154565b95508060c08e013511156111e6575f80fd5b6111f68e60c08f01358f01610fbb565b909550935060e08d013581101561120b575f80fd5b5061121c8d60e08e01358e01610fbb565b81935080925050509295989b509295989b9093969950565b5f805f805f805f8060e0898b03121561124b575f80fd5b61125489610fa0565b97506020890135965060408901359550606089013594506080890135935060a0890135925060c089013567ffffffffffffffff811115611292575f80fd5b61129e8b828c01610fbb565b999c989b5096995094979396929594505050565b5f602082840312156112c2575f80fd5b81516112cd81611147565b9392505050565b81835281816020850137505f828201602090810191909152601f909101601f19169091010190565b60a081525f61130f60a08301898b6112d4565b828103602084015261132281888a6112d4565b604084019690965250506060810192909252608090910152949350505050565b5f60208284031215611352575f80fd5b5051919050565b868152608060208201525f6113726080830187896112d4565b8515156040840152828103606084015261138d8185876112d4565b9998505050505050505050565b6001600160a01b038881168252602082018890528681166040830152606082018690528416608082015260c060a082018190525f9061138d90830184866112d4565b818103818111156104d257634e487b7160e01b5f52601160045260245ffdfea2646970667358221220143333099d24365e5da3f707b39f0b4c3ffd31ba6a74eae90703f081931801fa64736f6c63430008180033","linkReferences":{}},"methodIdentifiers":{"MAX_SLIPPAGE_BPS()":"e229cd76","arena()":"fd3705f9","ember()":"1f1b9a7c","getExpectedEmber(uint256,uint256)":"499cd003","kyberRouter()":"f63ca6e4","owner()":"8da5cb5b","renounceOwnership()":"715018a6","rescueTokens(address,uint256)":"57376198","setKyberRouter(address)":"8b33203c","transferOwnership(address)":"f2fde38b","zapAndCreateMarket(address,uint256,uint256,string,string,uint256,uint256,uint256,bytes)":"1d53e9dd","zapAndSubmitEntry(address,uint256,uint256,uint256,string,bool,bytes,bytes)":"91649102","zapAndVote(address,uint256,uint256,uint256,uint256,uint256,bytes)":"b74b8fa4"},"id":39}