{"abi":[{"type":"constructor","inputs":[{"name":"_emberToken","type":"address","internalType":"address"},{"name":"_oracle","type":"address","internalType":"address"},{"name":"_stakingDrip","type":"address","internalType":"address"},{"name":"_burnAddress","type":"address","internalType":"address"}],"stateMutability":"nonpayable"},{"type":"function","name":"DEFAULT_ENTRY_DURATION","inputs":[],"outputs":[{"name":"","type":"uint256","internalType":"uint256"}],"stateMutability":"view"},{"type":"function","name":"DEFAULT_ENTRY_FEE","inputs":[],"outputs":[{"name":"","type":"uint256","internalType":"uint256"}],"stateMutability":"view"},{"type":"function","name":"DEFAULT_VOTE_DURATION","inputs":[],"outputs":[{"name":"","type":"uint256","internalType":"uint256"}],"stateMutability":"view"},{"type":"function","name":"FIRST_PLACE_BPS","inputs":[],"outputs":[{"name":"","type":"uint256","internalType":"uint256"}],"stateMutability":"view"},{"type":"function","name":"INITIATOR_BPS","inputs":[],"outputs":[{"name":"","type":"uint256","internalType":"uint256"}],"stateMutability":"view"},{"type":"function","name":"MARKET_CREATION_FEE","inputs":[],"outputs":[{"name":"","type":"uint256","internalType":"uint256"}],"stateMutability":"view"},{"type":"function","name":"MIN_ENTRIES_TO_PROCEED","inputs":[],"outputs":[{"name":"","type":"uint256","internalType":"uint256"}],"stateMutability":"view"},{"type":"function","name":"SECOND_PLACE_BPS","inputs":[],"outputs":[{"name":"","type":"uint256","internalType":"uint256"}],"stateMutability":"view"},{"type":"function","name":"STAKERS_BPS","inputs":[],"outputs":[{"name":"","type":"uint256","internalType":"uint256"}],"stateMutability":"view"},{"type":"function","name":"THIRD_PLACE_BPS","inputs":[],"outputs":[{"name":"","type":"uint256","internalType":"uint256"}],"stateMutability":"view"},{"type":"function","name":"burnAddress","inputs":[],"outputs":[{"name":"","type":"address","internalType":"address"}],"stateMutability":"view"},{"type":"function","name":"calculateVoteCost","inputs":[{"name":"currentTotalVotes","type":"uint256","internalType":"uint256"},{"name":"numVotes","type":"uint256","internalType":"uint256"}],"outputs":[{"name":"cost","type":"uint256","internalType":"uint256"}],"stateMutability":"view"},{"type":"function","name":"createMarket","inputs":[{"name":"title","type":"string","internalType":"string"},{"name":"rules","type":"string","internalType":"string"},{"name":"entryCost","type":"uint256","internalType":"uint256"},{"name":"entryDuration","type":"uint256","internalType":"uint256"},{"name":"voteDuration","type":"uint256","internalType":"uint256"}],"outputs":[{"name":"marketId","type":"uint256","internalType":"uint256"}],"stateMutability":"nonpayable"},{"type":"function","name":"curveExponent","inputs":[],"outputs":[{"name":"","type":"uint256","internalType":"uint256"}],"stateMutability":"view"},{"type":"function","name":"curveParam","inputs":[],"outputs":[{"name":"","type":"uint256","internalType":"uint256"}],"stateMutability":"view"},{"type":"function","name":"emberToken","inputs":[],"outputs":[{"name":"","type":"address","internalType":"contract IERC20"}],"stateMutability":"view"},{"type":"function","name":"entries","inputs":[{"name":"","type":"uint256","internalType":"uint256"},{"name":"","type":"uint256","internalType":"uint256"}],"outputs":[{"name":"author","type":"address","internalType":"address"},{"name":"data","type":"string","internalType":"string"},{"name":"votes","type":"uint256","internalType":"uint256"},{"name":"filtered","type":"bool","internalType":"bool"},{"name":"exists","type":"bool","internalType":"bool"}],"stateMutability":"view"},{"type":"function","name":"getCurrentVotePrice","inputs":[{"name":"marketId","type":"uint256","internalType":"uint256"},{"name":"numVotes","type":"uint256","internalType":"uint256"}],"outputs":[{"name":"","type":"uint256","internalType":"uint256"}],"stateMutability":"view"},{"type":"function","name":"getEntry","inputs":[{"name":"marketId","type":"uint256","internalType":"uint256"},{"name":"entryId","type":"uint256","internalType":"uint256"}],"outputs":[{"name":"","type":"tuple","internalType":"struct EmberVoteArena.Entry","components":[{"name":"author","type":"address","internalType":"address"},{"name":"data","type":"string","internalType":"string"},{"name":"votes","type":"uint256","internalType":"uint256"},{"name":"filtered","type":"bool","internalType":"bool"},{"name":"exists","type":"bool","internalType":"bool"}]}],"stateMutability":"view"},{"type":"function","name":"getLeaderboard","inputs":[{"name":"marketId","type":"uint256","internalType":"uint256"}],"outputs":[{"name":"entryIds","type":"uint256[]","internalType":"uint256[]"},{"name":"voteCounts","type":"uint256[]","internalType":"uint256[]"}],"stateMutability":"view"},{"type":"function","name":"getMarket","inputs":[{"name":"marketId","type":"uint256","internalType":"uint256"}],"outputs":[{"name":"","type":"tuple","internalType":"struct EmberVoteArena.Market","components":[{"name":"initiator","type":"address","internalType":"address"},{"name":"title","type":"string","internalType":"string"},{"name":"rules","type":"string","internalType":"string"},{"name":"entryCost","type":"uint256","internalType":"uint256"},{"name":"entryEnd","type":"uint256","internalType":"uint256"},{"name":"voteEnd","type":"uint256","internalType":"uint256"},{"name":"totalPot","type":"uint256","internalType":"uint256"},{"name":"totalVotes","type":"uint256","internalType":"uint256"},{"name":"entryCount","type":"uint256","internalType":"uint256"},{"name":"state","type":"uint8","internalType":"enum EmberVoteArena.MarketState"},{"name":"resolved","type":"bool","internalType":"bool"}]}],"stateMutability":"view"},{"type":"function","name":"getMarketEntries","inputs":[{"name":"marketId","type":"uint256","internalType":"uint256"}],"outputs":[{"name":"","type":"uint256[]","internalType":"uint256[]"}],"stateMutability":"view"},{"type":"function","name":"marketCount","inputs":[],"outputs":[{"name":"","type":"uint256","internalType":"uint256"}],"stateMutability":"view"},{"type":"function","name":"marketEntryIds","inputs":[{"name":"","type":"uint256","internalType":"uint256"},{"name":"","type":"uint256","internalType":"uint256"}],"outputs":[{"name":"","type":"uint256","internalType":"uint256"}],"stateMutability":"view"},{"type":"function","name":"markets","inputs":[{"name":"","type":"uint256","internalType":"uint256"}],"outputs":[{"name":"initiator","type":"address","internalType":"address"},{"name":"title","type":"string","internalType":"string"},{"name":"rules","type":"string","internalType":"string"},{"name":"entryCost","type":"uint256","internalType":"uint256"},{"name":"entryEnd","type":"uint256","internalType":"uint256"},{"name":"voteEnd","type":"uint256","internalType":"uint256"},{"name":"totalPot","type":"uint256","internalType":"uint256"},{"name":"totalVotes","type":"uint256","internalType":"uint256"},{"name":"entryCount","type":"uint256","internalType":"uint256"},{"name":"state","type":"uint8","internalType":"enum EmberVoteArena.MarketState"},{"name":"resolved","type":"bool","internalType":"bool"}],"stateMutability":"view"},{"type":"function","name":"oracle","inputs":[],"outputs":[{"name":"","type":"address","internalType":"address"}],"stateMutability":"view"},{"type":"function","name":"owner","inputs":[],"outputs":[{"name":"","type":"address","internalType":"address"}],"stateMutability":"view"},{"type":"function","name":"renounceOwnership","inputs":[],"outputs":[],"stateMutability":"nonpayable"},{"type":"function","name":"resolve","inputs":[{"name":"marketId","type":"uint256","internalType":"uint256"}],"outputs":[],"stateMutability":"nonpayable"},{"type":"function","name":"setBurnAddress","inputs":[{"name":"newBurn","type":"address","internalType":"address"}],"outputs":[],"stateMutability":"nonpayable"},{"type":"function","name":"setCurveParams","inputs":[{"name":"newParam","type":"uint256","internalType":"uint256"},{"name":"newExponent","type":"uint256","internalType":"uint256"}],"outputs":[],"stateMutability":"nonpayable"},{"type":"function","name":"setOracle","inputs":[{"name":"newOracle","type":"address","internalType":"address"}],"outputs":[],"stateMutability":"nonpayable"},{"type":"function","name":"setStakingDrip","inputs":[{"name":"newDrip","type":"address","internalType":"address"}],"outputs":[],"stateMutability":"nonpayable"},{"type":"function","name":"stakingDrip","inputs":[],"outputs":[{"name":"","type":"address","internalType":"address"}],"stateMutability":"view"},{"type":"function","name":"submitEntry","inputs":[{"name":"marketId","type":"uint256","internalType":"uint256"},{"name":"data","type":"string","internalType":"string"},{"name":"approved","type":"bool","internalType":"bool"},{"name":"signature","type":"bytes","internalType":"bytes"}],"outputs":[{"name":"entryId","type":"uint256","internalType":"uint256"}],"stateMutability":"nonpayable"},{"type":"function","name":"transferOwnership","inputs":[{"name":"newOwner","type":"address","internalType":"address"}],"outputs":[],"stateMutability":"nonpayable"},{"type":"function","name":"userVotes","inputs":[{"name":"","type":"uint256","internalType":"uint256"},{"name":"","type":"address","internalType":"address"}],"outputs":[{"name":"","type":"uint256","internalType":"uint256"}],"stateMutability":"view"},{"type":"function","name":"vote","inputs":[{"name":"marketId","type":"uint256","internalType":"uint256"},{"name":"entryId","type":"uint256","internalType":"uint256"},{"name":"voteAmount","type":"uint256","internalType":"uint256"}],"outputs":[],"stateMutability":"nonpayable"},{"type":"event","name":"CurveParamsUpdated","inputs":[{"name":"newParam","type":"uint256","indexed":false,"internalType":"uint256"},{"name":"newExponent","type":"uint256","indexed":false,"internalType":"uint256"}],"anonymous":false},{"type":"event","name":"EntrySubmitted","inputs":[{"name":"marketId","type":"uint256","indexed":true,"internalType":"uint256"},{"name":"entryId","type":"uint256","indexed":true,"internalType":"uint256"},{"name":"author","type":"address","indexed":true,"internalType":"address"},{"name":"data","type":"string","indexed":false,"internalType":"string"},{"name":"filtered","type":"bool","indexed":false,"internalType":"bool"}],"anonymous":false},{"type":"event","name":"MarketCreated","inputs":[{"name":"marketId","type":"uint256","indexed":true,"internalType":"uint256"},{"name":"initiator","type":"address","indexed":true,"internalType":"address"},{"name":"title","type":"string","indexed":false,"internalType":"string"},{"name":"entryCost","type":"uint256","indexed":false,"internalType":"uint256"},{"name":"entryEnd","type":"uint256","indexed":false,"internalType":"uint256"},{"name":"voteEnd","type":"uint256","indexed":false,"internalType":"uint256"}],"anonymous":false},{"type":"event","name":"MarketResolved","inputs":[{"name":"marketId","type":"uint256","indexed":true,"internalType":"uint256"},{"name":"firstPlace","type":"uint256","indexed":false,"internalType":"uint256"},{"name":"secondPlace","type":"uint256","indexed":false,"internalType":"uint256"},{"name":"thirdPlace","type":"uint256","indexed":false,"internalType":"uint256"}],"anonymous":false},{"type":"event","name":"OracleUpdated","inputs":[{"name":"oldOracle","type":"address","indexed":true,"internalType":"address"},{"name":"newOracle","type":"address","indexed":true,"internalType":"address"}],"anonymous":false},{"type":"event","name":"OwnershipTransferred","inputs":[{"name":"previousOwner","type":"address","indexed":true,"internalType":"address"},{"name":"newOwner","type":"address","indexed":true,"internalType":"address"}],"anonymous":false},{"type":"event","name":"PayoutDistributed","inputs":[{"name":"marketId","type":"uint256","indexed":true,"internalType":"uint256"},{"name":"recipient","type":"address","indexed":true,"internalType":"address"},{"name":"amount","type":"uint256","indexed":false,"internalType":"uint256"},{"name":"payoutType","type":"string","indexed":false,"internalType":"string"}],"anonymous":false},{"type":"event","name":"VoteCast","inputs":[{"name":"marketId","type":"uint256","indexed":true,"internalType":"uint256"},{"name":"entryId","type":"uint256","indexed":true,"internalType":"uint256"},{"name":"voter","type":"address","indexed":true,"internalType":"address"},{"name":"amount","type":"uint256","indexed":false,"internalType":"uint256"},{"name":"cost","type":"uint256","indexed":false,"internalType":"uint256"}],"anonymous":false},{"type":"error","name":"CannotVoteOnFilteredEntry","inputs":[]},{"type":"error","name":"ECDSAInvalidSignature","inputs":[]},{"type":"error","name":"ECDSAInvalidSignatureLength","inputs":[{"name":"length","type":"uint256","internalType":"uint256"}]},{"type":"error","name":"ECDSAInvalidSignatureS","inputs":[{"name":"s","type":"bytes32","internalType":"bytes32"}]},{"type":"error","name":"EntryDoesNotExist","inputs":[]},{"type":"error","name":"InsufficientPayment","inputs":[]},{"type":"error","name":"InvalidMarket","inputs":[]},{"type":"error","name":"InvalidOracle","inputs":[]},{"type":"error","name":"InvalidSignature","inputs":[]},{"type":"error","name":"MarketAlreadyResolved","inputs":[]},{"type":"error","name":"MarketNotInEntryPhase","inputs":[]},{"type":"error","name":"MarketNotInVotingPhase","inputs":[]},{"type":"error","name":"OwnableInvalidOwner","inputs":[{"name":"owner","type":"address","internalType":"address"}]},{"type":"error","name":"OwnableUnauthorizedAccount","inputs":[{"name":"account","type":"address","internalType":"address"}]},{"type":"error","name":"SafeERC20FailedOperation","inputs":[{"name":"token","type":"address","internalType":"address"}]},{"type":"error","name":"TransferFailed","inputs":[]},{"type":"error","name":"VotingNotEnded","inputs":[]},{"type":"error","name":"ZeroAddress","inputs":[]},{"type":"error","name":"ZeroAmount","inputs":[]}],"bytecode":{"object":"0x60a060405261271060045560026005553480156200001b575f80fd5b50604051620031bc380380620031bc8339810160408190526200003e91620001c3565b33806200006457604051631e4fbdf760e01b81525f600482015260240160405180910390fd5b6200006f8162000158565b506001600160a01b038416620000985760405163d92e233d60e01b815260040160405180910390fd5b6001600160a01b038316620000c05760405163d92e233d60e01b815260040160405180910390fd5b6001600160a01b038216620000e85760405163d92e233d60e01b815260040160405180910390fd5b6001600160a01b038116620001105760405163d92e233d60e01b815260040160405180910390fd5b6001600160a01b03938416608052600180549385166001600160a01b03199485161790556002805492851692841692909217909155600380549190931691161790556200021d565b5f80546001600160a01b038381166001600160a01b0319831681178455604051919092169283917f8be0079c531659141344cd1fd0a4f28419497f9722a3daafe3b4186f6b6457e09190a35050565b80516001600160a01b0381168114620001be575f80fd5b919050565b5f805f8060808587031215620001d7575f80fd5b620001e285620001a7565b9350620001f260208601620001a7565b92506200020260408601620001a7565b91506200021260608601620001a7565b905092959194509250565b608051612f406200027c5f395f818161025601528181610a3701528181610c510152818161131301528181611abd01528181611b6801528181611f3201528181611fec015281816120b00152818161214e01526121eb0152612f405ff3fe608060405234801561000f575f80fd5b5060043610610229575f3560e01c806398ba676d1161012a578063bc3ee2b9116100b4578063e1e1ed5a11610079578063e1e1ed5a146102d4578063eb44fdd3146104bb578063ec979082146104db578063f2fde38b146104e4578063fe5b3e3b146104f7575f80fd5b8063bc3ee2b914610471578063bd2ea63f14610484578063c03eee32146103e5578063cff4cc3114610497578063dc6f7c57146104a8575f80fd5b8063a34b46fe116100fa578063a34b46fe14610401578063a4b9328b14610422578063a5d6fb1f1461042b578063ab8c9f8d1461043e578063b1283e7714610447575f80fd5b806398ba676d146103b25780639bd1d513146103d2578063a04941a2146103e5578063a06dbfa3146103ee575f80fd5b80634f896d4f116101b65780637dc0d1d01161017b5780637dc0d1d01461036b5780638a6655d61461037e5780638da5cb5b14610391578063977a5c47146103a157806397874124146103a9575f80fd5b80634f896d4f146103175780635c2e1f2a1461032a57806370d5ae051461033d578063715018a6146103505780637adbf97314610358575f80fd5b806326f4c776116101fc57806326f4c776146102d457806328cd26dc146102dd5780632a9795cd146102f0578063324578f8146102f95780634b0e721614610302575f80fd5b80630a6f89811461022d5780630cae9d5e1461025157806317b937e61461029057806319a51a31146102b4575b5f80fd5b61023e69152d02c7e14af680000081565b6040519081526020015b60405180910390f35b6102787f000000000000000000000000000000000000000000000000000000000000000081565b6040516001600160a01b039091168152602001610248565b6102a361029e366004612771565b610521565b6040516102489594939291906127d4565b6102c76102c2366004612816565b6105f1565b6040516102489190612867565b61023e61546081565b61023e6102eb366004612771565b610650565b61023e60055481565b61023e60045481565b610315610310366004612894565b610674565b005b610315610325366004612816565b6106c5565b600254610278906001600160a01b031681565b600354610278906001600160a01b031681565b61031561084c565b610315610366366004612894565b61085f565b600154610278906001600160a01b031681565b61031561038c3660046128ad565b6108e9565b5f546001600160a01b0316610278565b61023e600281565b61023e6107d081565b6103c56103c0366004612771565b610b1f565b60405161024891906128d6565b61023e6103e0366004612976565b610c3e565b61023e6103e881565b6103156103fc366004612771565b610edb565b61041461040f366004612816565b610f2a565b6040516102489291906129f6565b61023e61157c81565b61023e610439366004612a23565b61119b565b61023e6101f481565b61045a610455366004612816565b6114ce565b6040516102489b9a99989796959493929190612ae3565b61023e61047f366004612771565b61163e565b61023e610492366004612771565b611669565b61023e69021e19e0c9bab240000081565b6103156104b6366004612894565b611702565b6104ce6104c9366004612816565b611753565b6040516102489190612b6a565b61023e60065481565b6103156104f2366004612894565b611931565b61023e610505366004612c2d565b600960209081525f928352604080842090915290825290205481565b600860209081525f9283526040808420909152908252902080546001820180546001600160a01b03909216929161055790612c57565b80601f016020809104026020016040519081016040528092919081815260200182805461058390612c57565b80156105ce5780601f106105a5576101008083540402835291602001916105ce565b820191905f5260205f20905b8154815290600101906020018083116105b157829003601f168201915b50505050600283015460039093015491929160ff80821692506101009091041685565b5f818152600a602090815260409182902080548351818402810184019094528084526060939283018282801561064457602002820191905f5260205f20905b815481526020019060010190808311610630575b50505050509050919050565b5f8281526007602081905260408220015461066b9083611669565b90505b92915050565b61067c611973565b6001600160a01b0381166106a35760405163d92e233d60e01b815260040160405180910390fd5b600380546001600160a01b0319166001600160a01b0392909216919091179055565b5f81815260076020526040902080546001600160a01b03166106fa57604051639db8d5b160e01b815260040160405180910390fd5b6009810154610100900460ff16156107255760405163aa43cb2d60e01b815260040160405180910390fd5b8060050154421161074957604051633fc30bd160e11b815260040160405180910390fd5b60098101805461ffff19166101021790555f828152600a60209081526040808320805482518185028101850190935280835291929091908301828280156107ad57602002820191905f5260205f20905b815481526020019060010190808311610799575b505050505090505f6107bf848361199f565b905060028110156107da576107d48483611a10565b50505050565b5f805f806107e88887611bec565b60408051858152602081018590529081018390529397509195509350915088907f9f7cb4c52f35416365b5664015fc31776d715fff39c7b9cb7529d135f9885f499060600160405180910390a26108428885858585611ce3565b5050505050505050565b610854611973565b61085d5f61228c565b565b610867611973565b6001600160a01b03811661088e57604051639589a27d60e01b815260040160405180910390fd5b6001546040516001600160a01b038084169216907f078c3b417dadf69374a59793b829c52001247130433427049317bde56607b1b7905f90a3600180546001600160a01b0319166001600160a01b0392909216919091179055565b805f0361090957604051631f2a200560e01b815260040160405180910390fd5b5f8381526007602090815260408083206008835281842086855290925290912081546001600160a01b031661095157604051639db8d5b160e01b815260040160405180910390fd5b6003810154610100900460ff1661097b5760405163d12045c560e01b815260040160405180910390fd5b600381015460ff16156109a15760405163fc860c3760e01b815260040160405180910390fd5b816004015442116109c557604051635b7a119b60e11b815260040160405180910390fd5b81600501544211156109ea57604051635b7a119b60e11b815260040160405180910390fd5b5f600983015460ff166003811115610a0457610a04612aaf565b03610a195760098201805460ff191660011790555b5f610a28836007015485611669565b9050610a5f6001600160a01b037f0000000000000000000000000000000000000000000000000000000000000000163330846122db565b80836006015f828254610a729190612ca3565b9250508190555083826002015f828254610a8c9190612ca3565b9250508190555083836007015f828254610aa69190612ca3565b90915550505f86815260096020908152604080832033845290915281208054869290610ad3908490612ca3565b909155505060408051858152602081018390523391879189917f58cfe003711e6d7e0f32c93d3eb5617a03925d8863d7bb5dc084666365866022910160405180910390a4505050505050565b6040805160a0810182525f80825260606020830181905292820181905291810182905260808101919091525f838152600860209081526040808320858452825291829020825160a0810190935280546001600160a01b031683526001810180549192840191610b8d90612c57565b80601f0160208091040260200160405190810160405280929190818152602001828054610bb990612c57565b8015610c045780601f10610bdb57610100808354040283529160200191610c04565b820191905f5260205f20905b815481529060010190602001808311610be757829003601f168201915b50505091835250506002820154602082015260039091015460ff808216151560408401526101009091041615156060909101529392505050565b6003545f90610c86906001600160a01b037f000000000000000000000000000000000000000000000000000000000000000081169133911669152d02c7e14af68000006122db565b835f03610c9b5769021e19e0c9bab240000093505b825f03610ca85761546092505b815f03610cb55761546091505b60068054905f610cc483612cb6565b9091555090505f610cd58442612ca3565b90505f610ce28483612ca3565b9050604051806101600160405280336001600160a01b031681526020018b8b8080601f0160208091040260200160405190810160405280939291908181526020018383808284375f92019190915250505090825250604080516020601f8c018190048102820181019092528a815291810191908b908b90819084018382808284375f9201829052509385525050506020820189905260408201859052606082018490526080820181905260a0820181905260c0820181905260e09091019081525f60209182018190528581526007825260409020825181546001600160a01b0319166001600160a01b03909116178155908201516001820190610de59082612d2d565b5060408201516002820190610dfa9082612d2d565b50606082015181600301556080820151816004015560a0820151816005015560c0820151816006015560e082015181600701556101008201518160080155610120820151816009015f6101000a81548160ff02191690836003811115610e6257610e62612aaf565b02179055506101409190910151600990910180549115156101000261ff0019909216919091179055604051339084907f4a7d407b15f60472268a43a4f0fc258be19105b8967dd8123b49b25ade8d012890610ec6908e908e908c9089908990612e15565b60405180910390a35050979650505050505050565b610ee3611973565b6004829055600581905560408051838152602081018390527fc7f5f3d6d899e425ac39aa624d04deea7cdea431373328bda593d20cf3fa12e7910160405180910390a15050565b6060805f600a5f8581526020019081526020015f20805480602002602001604051908101604052809291908181526020018280548015610f8757602002820191905f5260205f20905b815481526020019060010190808311610f73575b505050505090505f815167ffffffffffffffff811115610fa957610fa9612cce565b604051908082528060200260200182016040528015610fd2578160200160208202803683370190505b5090505f5b82518110156110425760085f8781526020019081526020015f205f84838151811061100457611004612e45565b602002602001015181526020019081526020015f206002015482828151811061102f5761102f612e45565b6020908102919091010152600101610fd7565b505f5b8251811015611190575f61105a826001612ca3565b90505b83518110156111875782828151811061107857611078612e45565b602002602001015183828151811061109257611092612e45565b6020026020010151111561117f578281815181106110b2576110b2612e45565b60200260200101518383815181106110cc576110cc612e45565b60200260200101518484815181106110e6576110e6612e45565b602002602001018584815181106110ff576110ff612e45565b602002602001018281525082815250505083818151811061112257611122612e45565b602002602001015184838151811061113c5761113c612e45565b602002602001015185848151811061115657611156612e45565b6020026020010186848151811061116f5761116f612e45565b6020908102919091010191909152525b60010161105d565b50600101611045565b509094909350915050565b5f86815260076020526040812080546001600160a01b03166111d057604051639db8d5b160e01b815260040160405180910390fd5b8060040154421115611224575f600982015460ff1660038111156111f6576111f6612aaf565b0361120b5760098101805460ff191660011790555b60405163d7d0062d60e01b815260040160405180910390fd5b5f8888888860405160200161123c9493929190612e59565b6040516020818303038152906040528051906020012090505f61128b827f19457468657265756d205369676e6564204d6573736167653a0a3332000000005f908152601c91909152603c902090565b90505f6112cf87878080601f0160208091040260200160405190810160405280939291908181526020018383808284375f9201919091525086939250506123119050565b6001549091506001600160a01b0380831691161461130057604051638baa579f60e01b815260040160405180910390fd5b600384015461133d906001600160a01b037f00000000000000000000000000000000000000000000000000000000000000001690339030906122db565b8360030154846006015f8282546113549190612ca3565b9091555050600884018054905f61136a83612cb6565b9190505594506040518060a00160405280336001600160a01b031681526020018b8b8080601f0160208091040260200160405190810160405280939291908181526020018383808284375f92018290525093855250505060208083018290528b15604080850191909152600160609094018490528f8352600882528083208a84528252909120835181546001600160a01b0319166001600160a01b0390911617815590830151909182019061141f9082612d2d565b50604082810151600283015560608301516003909201805460809094015115156101000261ff00199315159390931661ffff1990941693909317919091179091555f8c8152600a6020908152828220805460018101825590835291200186905551339086908d907ffb299d98ffbafefc1b2a01b414e9fd21b444fef89b691d2fd2aed101ec4d27a7906114b8908f908f908f1590612e7c565b60405180910390a4505050509695505050505050565b60076020525f9081526040902080546001820180546001600160a01b0390921692916114f990612c57565b80601f016020809104026020016040519081016040528092919081815260200182805461152590612c57565b80156115705780601f1061154757610100808354040283529160200191611570565b820191905f5260205f20905b81548152906001019060200180831161155357829003601f168201915b50505050509080600201805461158590612c57565b80601f01602080910402602001604051908101604052809291908181526020018280546115b190612c57565b80156115fc5780601f106115d3576101008083540402835291602001916115fc565b820191905f5260205f20905b8154815290600101906020018083116115df57829003601f168201915b50505050600383015460048401546005850154600686015460078701546008880154600990980154969794969395509193909260ff808216916101009004168b565b600a602052815f5260405f208181548110611657575f80fd5b905f5260205f20015f91509150505481565b5f670de0b6b3a76400008161167e8583612339565b90505f61169461168e8688612ca3565b84612339565b9050670de0b6b3a76400006002866116ac8486612ca3565b6116b69190612ea1565b6116c09190612eb8565b6116ca9190612eb8565b93505f670de0b6b3a76400006116e08786612ea1565b6116ea9190612eb8565b9050808510156116f8578094505b5050505092915050565b61170a611973565b6001600160a01b0381166117315760405163d92e233d60e01b815260040160405180910390fd5b600280546001600160a01b0319166001600160a01b0392909216919091179055565b61175b612706565b5f828152600760209081526040918290208251610160810190935280546001600160a01b03168352600181018054919284019161179790612c57565b80601f01602080910402602001604051908101604052809291908181526020018280546117c390612c57565b801561180e5780601f106117e55761010080835404028352916020019161180e565b820191905f5260205f20905b8154815290600101906020018083116117f157829003601f168201915b5050505050815260200160028201805461182790612c57565b80601f016020809104026020016040519081016040528092919081815260200182805461185390612c57565b801561189e5780601f106118755761010080835404028352916020019161189e565b820191905f5260205f20905b81548152906001019060200180831161188157829003601f168201915b50505091835250506003828101546020830152600483015460408301526005830154606083015260068301546080830152600783015460a0830152600883015460c0830152600983015460e09092019160ff169081111561190157611901612aaf565b600381111561191257611912612aaf565b815260099190910154610100900460ff16151560209091015292915050565b611939611973565b6001600160a01b03811661196757604051631e4fbdf760e01b81525f60048201526024015b60405180910390fd5b6119708161228c565b50565b5f546001600160a01b0316331461085d5760405163118cdaa760e01b815233600482015260240161195e565b5f805b8251811015611a095760085f8581526020019081526020015f205f8483815181106119cf576119cf612e45565b60209081029190910181015182528101919091526040015f206003015460ff16611a0157816119fd81612cb6565b9250505b6001016119a2565b5092915050565b5f828152600760205260408120905b8251811015611b47575f84815260086020526040812084518290869085908110611a4b57611a4b612e45565b602002602001015181526020019081526020015f2090508060030160019054906101000a900460ff168015611a855750600381015460ff16155b15611b3e5760038301548015611b3c5780846006015f828254611aa89190612ed7565b90915550508154611ae6906001600160a01b037f00000000000000000000000000000000000000000000000000000000000000008116911683612435565b81546040516001600160a01b039091169087905f80516020612eeb83398151915290611b3390858152604060208201819052600690820152651c99599d5b9960d21b606082015260800190565b60405180910390a35b505b50600101611a1f565b50600681015415611be7576002546006820154611b92916001600160a01b037f0000000000000000000000000000000000000000000000000000000000000000811692911690612435565b60025460068201546040805191825260208201819052600790820152667374616b65727360c81b60608201526001600160a01b039091169084905f80516020612eeb8339815191529060800160405180910390a35b505050565b5f805f805f805f805f5b8951811015611cce575f8b81526008602052604081208b5182908d9085908110611c2257611c22612e45565b602002602001015181526020019081526020015f209050806003015f9054906101000a900460ff1615611c555750611cc6565b82611c5f81612cb6565b9350505f816002015490505f8c8481518110611c7d57611c7d612e45565b6020026020010151905087821115611c9e579a99985095949350858a611cc2565b86821115611cb3579998509493508489611cc2565b85821115611cc2578099508195505b5050505b600101611bf6565b50600381101594505050505092959194509250565b5f85815260076020908152604080832060068101546008845282852089865290935281842087855282852087865292852060028085015490830154939692949391929182918291148015611d3e575083600201548560020154145b15611d92575f6003612710896103e8611d5b6107d061157c612ca3565b611d659190612ca3565b611d6f9190612ea1565b611d799190612eb8565b611d839190612eb8565b9350839250829150611eb89050565b8460020154866002015403611dfd575f600261271089611db66107d061157c612ca3565b611dc09190612ea1565b611dca9190612eb8565b611dd49190612eb8565b9350839250829050612710611deb896103e8612ea1565b611df59190612eb8565b915050611eb8565b8360020154856002015403611e6657612710611e1b8861157c612ea1565b611e259190612eb8565b92505f600261271089611e3c6103e86107d0612ca3565b611e469190612ea1565b611e509190612eb8565b611e5a9190612eb8565b9250829150611eb89050565b612710611e758861157c612ea1565b611e7f9190612eb8565b9250612710611e90886107d0612ea1565b611e9a9190612eb8565b9150612710611eab886103e8612ea1565b611eb59190612eb8565b90505b5f612710611ec8896103e8612ea1565b611ed29190612eb8565b90505f612710611ee48a6101f4612ea1565b611eee9190612eb8565b90508a611f0557611eff8383612ca3565b91505f92505b5f85118015611f1d575087546001600160a01b031615155b15611fbf578754611f5b906001600160a01b037f00000000000000000000000000000000000000000000000000000000000000008116911687612435565b875f015f9054906101000a90046001600160a01b03166001600160a01b03168f5f80516020612eeb83398151915287604051611fb691815260406020820181905260059082015264199a5c9cdd60da1b606082015260800190565b60405180910390a35b5f84118015611fd7575086546001600160a01b031615155b1561207a578654612015906001600160a01b037f00000000000000000000000000000000000000000000000000000000000000008116911686612435565b865f015f9054906101000a90046001600160a01b03166001600160a01b03168f5f80516020612eeb83398151915286604051612071918152604060208201819052600690820152651cd958dbdb9960d21b606082015260800190565b60405180910390a35b8a801561208657505f83115b801561209b575085546001600160a01b031615155b1561213d5785546120d9906001600160a01b037f00000000000000000000000000000000000000000000000000000000000000008116911685612435565b855f015f9054906101000a90046001600160a01b03166001600160a01b03168f5f80516020612eeb83398151915285604051612134918152604060208201819052600590820152641d1a1a5c9960da1b606082015260800190565b60405180910390a35b600254612177906001600160a01b037f00000000000000000000000000000000000000000000000000000000000000008116911684612435565b60025f9054906101000a90046001600160a01b03166001600160a01b03168f5f80516020612eeb833981519152846040516121d3918152604060208201819052600790820152667374616b65727360c81b606082015260800190565b60405180910390a38954612214906001600160a01b037f00000000000000000000000000000000000000000000000000000000000000008116911683612435565b895f015f9054906101000a90046001600160a01b03166001600160a01b03168f5f80516020612eeb833981519152836040516122739181526040602082018190526009908201526834b734ba34b0ba37b960b91b606082015260800190565b60405180910390a3505050505050505050505050505050565b5f80546001600160a01b038381166001600160a01b0319831681178455604051919092169283917f8be0079c531659141344cd1fd0a4f28419497f9722a3daafe3b4186f6b6457e09190a35050565b6122e984848484600161246a565b6107d457604051635274afe760e01b81526001600160a01b038516600482015260240161195e565b5f805f8061231f86866124d7565b92509250925061232f8282612520565b5090949350505050565b5f8060045484670de0b6b3a76400006123529190612ea1565b61235c9190612eb8565b61236e90670de0b6b3a7640000612ca3565b90506005546002036123b557670de0b6b3a7640000808261238f8187612ea1565b6123999190612ea1565b6123a39190612eb8565b6123ad9190612eb8565b91505061066e565b6005546001036123d257670de0b6b3a76400006123a38285612ea1565b670de0b6b3a76400005f5b60055481101561240e57670de0b6b3a76400006123fa8484612ea1565b6124049190612eb8565b91506001016123dd565b50670de0b6b3a76400006124228286612ea1565b61242c9190612eb8565b9250505061066e565b61244283838360016125dc565b611be757604051635274afe760e01b81526001600160a01b038416600482015260240161195e565b6040516323b872dd60e01b5f8181526001600160a01b038781166004528616602452604485905291602083606481808c5af1925060015f511483166124c65783831516156124ba573d5f823e3d81fd5b5f883b113d1516831692505b604052505f60605295945050505050565b5f805f835160410361250e576020840151604085015160608601515f1a6125008882858561263e565b955095509550505050612519565b505081515f91506002905b9250925092565b5f82600381111561253357612533612aaf565b0361253c575050565b600182600381111561255057612550612aaf565b0361256e5760405163f645eedf60e01b815260040160405180910390fd5b600282600381111561258257612582612aaf565b036125a35760405163fce698f760e01b81526004810182905260240161195e565b60038260038111156125b7576125b7612aaf565b036125d8576040516335e2f38360e21b81526004810182905260240161195e565b5050565b60405163a9059cbb60e01b5f8181526001600160a01b038616600452602485905291602083604481808b5af1925060015f51148316612632578383151615612626573d5f823e3d81fd5b5f873b113d1516831692505b60405250949350505050565b5f80807f7fffffffffffffffffffffffffffffff5d576e7357a4501ddfe92f46681b20a084111561267757505f915060039050826126fc565b604080515f808252602082018084528a905260ff891692820192909252606081018790526080810186905260019060a0016020604051602081039080840390855afa1580156126c8573d5f803e3d5ffd5b5050604051601f1901519150506001600160a01b0381166126f357505f9250600191508290506126fc565b92505f91508190505b9450945094915050565b6040518061016001604052805f6001600160a01b0316815260200160608152602001606081526020015f81526020015f81526020015f81526020015f81526020015f81526020015f81526020015f600381111561276557612765612aaf565b81525f60209091015290565b5f8060408385031215612782575f80fd5b50508035926020909101359150565b5f81518084525f5b818110156127b557602081850181015186830182015201612799565b505f602082860101526020601f19601f83011685010191505092915050565b6001600160a01b038616815260a0602082018190525f906127f790830187612791565b6040830195909552509115156060830152151560809091015292915050565b5f60208284031215612826575f80fd5b5035919050565b5f815180845260208085019450602084015f5b8381101561285c57815187529582019590820190600101612840565b509495945050505050565b602081525f61066b602083018461282d565b80356001600160a01b038116811461288f575f80fd5b919050565b5f602082840312156128a4575f80fd5b61066b82612879565b5f805f606084860312156128bf575f80fd5b505081359360208301359350604090920135919050565b602080825282516001600160a01b03168282015282015160a060408301525f9061290360c0840182612791565b9050604084015160608401526060840151151560808401526080840151151560a08401528091505092915050565b5f8083601f840112612941575f80fd5b50813567ffffffffffffffff811115612958575f80fd5b60208301915083602082850101111561296f575f80fd5b9250929050565b5f805f805f805f60a0888a03121561298c575f80fd5b873567ffffffffffffffff808211156129a3575f80fd5b6129af8b838c01612931565b909950975060208a01359150808211156129c7575f80fd5b506129d48a828b01612931565b989b979a50986040810135976060820135975060809091013595509350505050565b604081525f612a08604083018561282d565b8281036020840152612a1a818561282d565b95945050505050565b5f805f805f8060808789031215612a38575f80fd5b86359550602087013567ffffffffffffffff80821115612a56575f80fd5b612a628a838b01612931565b9097509550604089013591508115158214612a7b575f80fd5b90935060608801359080821115612a90575f80fd5b50612a9d89828a01612931565b979a9699509497509295939492505050565b634e487b7160e01b5f52602160045260245ffd5b60048110612adf57634e487b7160e01b5f52602160045260245ffd5b9052565b6001600160a01b038c168152610160602082018190525f90612b078382018e612791565b90508281036040840152612b1b818d612791565b9150508960608301528860808301528760a08301528660c08301528560e083015284610100830152612b51610120830185612ac3565b8215156101408301529c9b505050505050505050505050565b60208152612b846020820183516001600160a01b03169052565b5f6020830151610160806040850152612ba1610180850183612791565b91506040850151601f19858403016060860152612bbe8382612791565b92505060608501516080850152608085015160a085015260a085015160c085015260c085015160e085015260e0850151610100818187015280870151915050610120818187015280870151915050610140612c1b81870183612ac3565b90950151151593019290925250919050565b5f8060408385031215612c3e575f80fd5b82359150612c4e60208401612879565b90509250929050565b600181811c90821680612c6b57607f821691505b602082108103612c8957634e487b7160e01b5f52602260045260245ffd5b50919050565b634e487b7160e01b5f52601160045260245ffd5b8082018082111561066e5761066e612c8f565b5f60018201612cc757612cc7612c8f565b5060010190565b634e487b7160e01b5f52604160045260245ffd5b601f821115611be757805f5260205f20601f840160051c81016020851015612d075750805b601f840160051c820191505b81811015612d26575f8155600101612d13565b5050505050565b815167ffffffffffffffff811115612d4757612d47612cce565b612d5b81612d558454612c57565b84612ce2565b602080601f831160018114612d8e575f8415612d775750858301515b5f19600386901b1c1916600185901b178555612de5565b5f85815260208120601f198616915b82811015612dbc57888601518255948401946001909101908401612d9d565b5085821015612dd957878501515f19600388901b60f8161c191681555b505060018460011b0185555b505050505050565b81835281816020850137505f828201602090810191909152601f909101601f19169091010190565b608081525f612e28608083018789612ded565b602083019590955250604081019290925260609091015292915050565b634e487b7160e01b5f52603260045260245ffd5b8481528284602083013790151560f81b9101602081019190915260210192915050565b604081525f612e8f604083018587612ded565b90508215156020830152949350505050565b808202811582820484141761066e5761066e612c8f565b5f82612ed257634e487b7160e01b5f52601260045260245ffd5b500490565b8181038181111561066e5761066e612c8f56fe712a125cff0ee897af77cf5991ec0c7992adfb1b62a7fa10879ff4b9cdb2a24aa2646970667358221220e02c732134f177186d230c85a2efbf30c0f7fc224c5ee7322eedd19851a2d11b64736f6c63430008180033","linkReferences":{}},"methodIdentifiers":{"DEFAULT_ENTRY_DURATION()":"e1e1ed5a","DEFAULT_ENTRY_FEE()":"cff4cc31","DEFAULT_VOTE_DURATION()":"26f4c776","FIRST_PLACE_BPS()":"a4b9328b","INITIATOR_BPS()":"ab8c9f8d","MARKET_CREATION_FEE()":"0a6f8981","MIN_ENTRIES_TO_PROCEED()":"977a5c47","SECOND_PLACE_BPS()":"97874124","STAKERS_BPS()":"a04941a2","THIRD_PLACE_BPS()":"c03eee32","burnAddress()":"70d5ae05","calculateVoteCost(uint256,uint256)":"bd2ea63f","createMarket(string,string,uint256,uint256,uint256)":"9bd1d513","curveExponent()":"2a9795cd","curveParam()":"324578f8","emberToken()":"0cae9d5e","entries(uint256,uint256)":"17b937e6","getCurrentVotePrice(uint256,uint256)":"28cd26dc","getEntry(uint256,uint256)":"98ba676d","getLeaderboard(uint256)":"a34b46fe","getMarket(uint256)":"eb44fdd3","getMarketEntries(uint256)":"19a51a31","marketCount()":"ec979082","marketEntryIds(uint256,uint256)":"bc3ee2b9","markets(uint256)":"b1283e77","oracle()":"7dc0d1d0","owner()":"8da5cb5b","renounceOwnership()":"715018a6","resolve(uint256)":"4f896d4f","setBurnAddress(address)":"4b0e7216","setCurveParams(uint256,uint256)":"a06dbfa3","setOracle(address)":"7adbf973","setStakingDrip(address)":"dc6f7c57","stakingDrip()":"5c2e1f2a","submitEntry(uint256,string,bool,bytes)":"a5d6fb1f","transferOwnership(address)":"f2fde38b","userVotes(uint256,address)":"fe5b3e3b","vote(uint256,uint256,uint256)":"8a6655d6"},"id":38}