{"abi":[{"type":"constructor","inputs":[{"name":"_emberToken","type":"address","internalType":"address"},{"name":"_oracle","type":"address","internalType":"address"},{"name":"_stakingDrip","type":"address","internalType":"address"},{"name":"_burnAddress","type":"address","internalType":"address"}],"stateMutability":"nonpayable"},{"type":"function","name":"DEFAULT_ENTRY_DURATION","inputs":[],"outputs":[{"name":"","type":"uint256","internalType":"uint256"}],"stateMutability":"view"},{"type":"function","name":"DEFAULT_ENTRY_FEE","inputs":[],"outputs":[{"name":"","type":"uint256","internalType":"uint256"}],"stateMutability":"view"},{"type":"function","name":"DEFAULT_VOTE_DURATION","inputs":[],"outputs":[{"name":"","type":"uint256","internalType":"uint256"}],"stateMutability":"view"},{"type":"function","name":"FIRST_PLACE_BPS","inputs":[],"outputs":[{"name":"","type":"uint256","internalType":"uint256"}],"stateMutability":"view"},{"type":"function","name":"INITIATOR_BPS","inputs":[],"outputs":[{"name":"","type":"uint256","internalType":"uint256"}],"stateMutability":"view"},{"type":"function","name":"MARKET_CREATION_FEE","inputs":[],"outputs":[{"name":"","type":"uint256","internalType":"uint256"}],"stateMutability":"view"},{"type":"function","name":"MAX_ENTRIES","inputs":[],"outputs":[{"name":"","type":"uint256","internalType":"uint256"}],"stateMutability":"view"},{"type":"function","name":"MIN_ENTRIES_TO_PROCEED","inputs":[],"outputs":[{"name":"","type":"uint256","internalType":"uint256"}],"stateMutability":"view"},{"type":"function","name":"SECOND_PLACE_BPS","inputs":[],"outputs":[{"name":"","type":"uint256","internalType":"uint256"}],"stateMutability":"view"},{"type":"function","name":"STAKERS_BPS","inputs":[],"outputs":[{"name":"","type":"uint256","internalType":"uint256"}],"stateMutability":"view"},{"type":"function","name":"THIRD_PLACE_BPS","inputs":[],"outputs":[{"name":"","type":"uint256","internalType":"uint256"}],"stateMutability":"view"},{"type":"function","name":"burnAddress","inputs":[],"outputs":[{"name":"","type":"address","internalType":"address"}],"stateMutability":"view"},{"type":"function","name":"calculateVoteCost","inputs":[{"name":"currentTotalVotes","type":"uint256","internalType":"uint256"},{"name":"numVotes","type":"uint256","internalType":"uint256"}],"outputs":[{"name":"cost","type":"uint256","internalType":"uint256"}],"stateMutability":"view"},{"type":"function","name":"createMarket","inputs":[{"name":"title","type":"string","internalType":"string"},{"name":"rules","type":"string","internalType":"string"},{"name":"entryCost","type":"uint256","internalType":"uint256"},{"name":"entryDuration","type":"uint256","internalType":"uint256"},{"name":"voteDuration","type":"uint256","internalType":"uint256"}],"outputs":[{"name":"marketId","type":"uint256","internalType":"uint256"}],"stateMutability":"nonpayable"},{"type":"function","name":"curveExponent","inputs":[],"outputs":[{"name":"","type":"uint256","internalType":"uint256"}],"stateMutability":"view"},{"type":"function","name":"curveParam","inputs":[],"outputs":[{"name":"","type":"uint256","internalType":"uint256"}],"stateMutability":"view"},{"type":"function","name":"emberToken","inputs":[],"outputs":[{"name":"","type":"address","internalType":"contract IERC20"}],"stateMutability":"view"},{"type":"function","name":"entries","inputs":[{"name":"","type":"uint256","internalType":"uint256"},{"name":"","type":"uint256","internalType":"uint256"}],"outputs":[{"name":"author","type":"address","internalType":"address"},{"name":"data","type":"string","internalType":"string"},{"name":"votes","type":"uint256","internalType":"uint256"},{"name":"filtered","type":"bool","internalType":"bool"},{"name":"exists","type":"bool","internalType":"bool"}],"stateMutability":"view"},{"type":"function","name":"getCurrentVotePrice","inputs":[{"name":"marketId","type":"uint256","internalType":"uint256"},{"name":"numVotes","type":"uint256","internalType":"uint256"}],"outputs":[{"name":"","type":"uint256","internalType":"uint256"}],"stateMutability":"view"},{"type":"function","name":"getEntry","inputs":[{"name":"marketId","type":"uint256","internalType":"uint256"},{"name":"entryId","type":"uint256","internalType":"uint256"}],"outputs":[{"name":"","type":"tuple","internalType":"struct EmberVoteArena.Entry","components":[{"name":"author","type":"address","internalType":"address"},{"name":"data","type":"string","internalType":"string"},{"name":"votes","type":"uint256","internalType":"uint256"},{"name":"filtered","type":"bool","internalType":"bool"},{"name":"exists","type":"bool","internalType":"bool"}]}],"stateMutability":"view"},{"type":"function","name":"getLeaderboard","inputs":[{"name":"marketId","type":"uint256","internalType":"uint256"}],"outputs":[{"name":"entryIds","type":"uint256[]","internalType":"uint256[]"},{"name":"voteCounts","type":"uint256[]","internalType":"uint256[]"}],"stateMutability":"view"},{"type":"function","name":"getMarket","inputs":[{"name":"marketId","type":"uint256","internalType":"uint256"}],"outputs":[{"name":"","type":"tuple","internalType":"struct EmberVoteArena.Market","components":[{"name":"initiator","type":"address","internalType":"address"},{"name":"title","type":"string","internalType":"string"},{"name":"rules","type":"string","internalType":"string"},{"name":"entryCost","type":"uint256","internalType":"uint256"},{"name":"entryEnd","type":"uint256","internalType":"uint256"},{"name":"voteEnd","type":"uint256","internalType":"uint256"},{"name":"totalPot","type":"uint256","internalType":"uint256"},{"name":"totalVotes","type":"uint256","internalType":"uint256"},{"name":"entryCount","type":"uint256","internalType":"uint256"},{"name":"state","type":"uint8","internalType":"enum EmberVoteArena.MarketState"},{"name":"resolved","type":"bool","internalType":"bool"}]}],"stateMutability":"view"},{"type":"function","name":"getMarketEntries","inputs":[{"name":"marketId","type":"uint256","internalType":"uint256"}],"outputs":[{"name":"","type":"uint256[]","internalType":"uint256[]"}],"stateMutability":"view"},{"type":"function","name":"marketCount","inputs":[],"outputs":[{"name":"","type":"uint256","internalType":"uint256"}],"stateMutability":"view"},{"type":"function","name":"marketEntryIds","inputs":[{"name":"","type":"uint256","internalType":"uint256"},{"name":"","type":"uint256","internalType":"uint256"}],"outputs":[{"name":"","type":"uint256","internalType":"uint256"}],"stateMutability":"view"},{"type":"function","name":"markets","inputs":[{"name":"","type":"uint256","internalType":"uint256"}],"outputs":[{"name":"initiator","type":"address","internalType":"address"},{"name":"title","type":"string","internalType":"string"},{"name":"rules","type":"string","internalType":"string"},{"name":"entryCost","type":"uint256","internalType":"uint256"},{"name":"entryEnd","type":"uint256","internalType":"uint256"},{"name":"voteEnd","type":"uint256","internalType":"uint256"},{"name":"totalPot","type":"uint256","internalType":"uint256"},{"name":"totalVotes","type":"uint256","internalType":"uint256"},{"name":"entryCount","type":"uint256","internalType":"uint256"},{"name":"state","type":"uint8","internalType":"enum EmberVoteArena.MarketState"},{"name":"resolved","type":"bool","internalType":"bool"}],"stateMutability":"view"},{"type":"function","name":"oracle","inputs":[],"outputs":[{"name":"","type":"address","internalType":"address"}],"stateMutability":"view"},{"type":"function","name":"owner","inputs":[],"outputs":[{"name":"","type":"address","internalType":"address"}],"stateMutability":"view"},{"type":"function","name":"renounceOwnership","inputs":[],"outputs":[],"stateMutability":"nonpayable"},{"type":"function","name":"resolve","inputs":[{"name":"marketId","type":"uint256","internalType":"uint256"}],"outputs":[],"stateMutability":"nonpayable"},{"type":"function","name":"setBurnAddress","inputs":[{"name":"newBurn","type":"address","internalType":"address"}],"outputs":[],"stateMutability":"nonpayable"},{"type":"function","name":"setCurveParams","inputs":[{"name":"newParam","type":"uint256","internalType":"uint256"},{"name":"newExponent","type":"uint256","internalType":"uint256"}],"outputs":[],"stateMutability":"nonpayable"},{"type":"function","name":"setOracle","inputs":[{"name":"newOracle","type":"address","internalType":"address"}],"outputs":[],"stateMutability":"nonpayable"},{"type":"function","name":"setStakingDrip","inputs":[{"name":"newDrip","type":"address","internalType":"address"}],"outputs":[],"stateMutability":"nonpayable"},{"type":"function","name":"stakingDrip","inputs":[],"outputs":[{"name":"","type":"address","internalType":"address"}],"stateMutability":"view"},{"type":"function","name":"submitEntry","inputs":[{"name":"marketId","type":"uint256","internalType":"uint256"},{"name":"data","type":"string","internalType":"string"},{"name":"approved","type":"bool","internalType":"bool"},{"name":"signature","type":"bytes","internalType":"bytes"}],"outputs":[{"name":"entryId","type":"uint256","internalType":"uint256"}],"stateMutability":"nonpayable"},{"type":"function","name":"transferOwnership","inputs":[{"name":"newOwner","type":"address","internalType":"address"}],"outputs":[],"stateMutability":"nonpayable"},{"type":"function","name":"usedSignatures","inputs":[{"name":"","type":"bytes32","internalType":"bytes32"}],"outputs":[{"name":"","type":"bool","internalType":"bool"}],"stateMutability":"view"},{"type":"function","name":"userVotes","inputs":[{"name":"","type":"uint256","internalType":"uint256"},{"name":"","type":"address","internalType":"address"}],"outputs":[{"name":"","type":"uint256","internalType":"uint256"}],"stateMutability":"view"},{"type":"function","name":"vote","inputs":[{"name":"marketId","type":"uint256","internalType":"uint256"},{"name":"entryId","type":"uint256","internalType":"uint256"},{"name":"voteAmount","type":"uint256","internalType":"uint256"}],"outputs":[],"stateMutability":"nonpayable"},{"type":"event","name":"CurveParamsUpdated","inputs":[{"name":"newParam","type":"uint256","indexed":false,"internalType":"uint256"},{"name":"newExponent","type":"uint256","indexed":false,"internalType":"uint256"}],"anonymous":false},{"type":"event","name":"EntrySubmitted","inputs":[{"name":"marketId","type":"uint256","indexed":true,"internalType":"uint256"},{"name":"entryId","type":"uint256","indexed":true,"internalType":"uint256"},{"name":"author","type":"address","indexed":true,"internalType":"address"},{"name":"data","type":"string","indexed":false,"internalType":"string"},{"name":"filtered","type":"bool","indexed":false,"internalType":"bool"}],"anonymous":false},{"type":"event","name":"MarketCreated","inputs":[{"name":"marketId","type":"uint256","indexed":true,"internalType":"uint256"},{"name":"initiator","type":"address","indexed":true,"internalType":"address"},{"name":"title","type":"string","indexed":false,"internalType":"string"},{"name":"entryCost","type":"uint256","indexed":false,"internalType":"uint256"},{"name":"entryEnd","type":"uint256","indexed":false,"internalType":"uint256"},{"name":"voteEnd","type":"uint256","indexed":false,"internalType":"uint256"}],"anonymous":false},{"type":"event","name":"MarketResolved","inputs":[{"name":"marketId","type":"uint256","indexed":true,"internalType":"uint256"},{"name":"firstPlace","type":"uint256","indexed":false,"internalType":"uint256"},{"name":"secondPlace","type":"uint256","indexed":false,"internalType":"uint256"},{"name":"thirdPlace","type":"uint256","indexed":false,"internalType":"uint256"}],"anonymous":false},{"type":"event","name":"OracleUpdated","inputs":[{"name":"oldOracle","type":"address","indexed":true,"internalType":"address"},{"name":"newOracle","type":"address","indexed":true,"internalType":"address"}],"anonymous":false},{"type":"event","name":"OwnershipTransferred","inputs":[{"name":"previousOwner","type":"address","indexed":true,"internalType":"address"},{"name":"newOwner","type":"address","indexed":true,"internalType":"address"}],"anonymous":false},{"type":"event","name":"PayoutDistributed","inputs":[{"name":"marketId","type":"uint256","indexed":true,"internalType":"uint256"},{"name":"recipient","type":"address","indexed":true,"internalType":"address"},{"name":"amount","type":"uint256","indexed":false,"internalType":"uint256"},{"name":"payoutType","type":"string","indexed":false,"internalType":"string"}],"anonymous":false},{"type":"event","name":"VoteCast","inputs":[{"name":"marketId","type":"uint256","indexed":true,"internalType":"uint256"},{"name":"entryId","type":"uint256","indexed":true,"internalType":"uint256"},{"name":"voter","type":"address","indexed":true,"internalType":"address"},{"name":"amount","type":"uint256","indexed":false,"internalType":"uint256"},{"name":"cost","type":"uint256","indexed":false,"internalType":"uint256"}],"anonymous":false},{"type":"error","name":"CannotVoteOnFilteredEntry","inputs":[]},{"type":"error","name":"ECDSAInvalidSignature","inputs":[]},{"type":"error","name":"ECDSAInvalidSignatureLength","inputs":[{"name":"length","type":"uint256","internalType":"uint256"}]},{"type":"error","name":"ECDSAInvalidSignatureS","inputs":[{"name":"s","type":"bytes32","internalType":"bytes32"}]},{"type":"error","name":"EntryDoesNotExist","inputs":[]},{"type":"error","name":"InsufficientPayment","inputs":[]},{"type":"error","name":"InvalidMarket","inputs":[]},{"type":"error","name":"InvalidOracle","inputs":[]},{"type":"error","name":"InvalidSignature","inputs":[]},{"type":"error","name":"MarketAlreadyResolved","inputs":[]},{"type":"error","name":"MarketNotInEntryPhase","inputs":[]},{"type":"error","name":"MarketNotInVotingPhase","inputs":[]},{"type":"error","name":"MaxEntriesReached","inputs":[]},{"type":"error","name":"OwnableInvalidOwner","inputs":[{"name":"owner","type":"address","internalType":"address"}]},{"type":"error","name":"OwnableUnauthorizedAccount","inputs":[{"name":"account","type":"address","internalType":"address"}]},{"type":"error","name":"SafeERC20FailedOperation","inputs":[{"name":"token","type":"address","internalType":"address"}]},{"type":"error","name":"SignatureAlreadyUsed","inputs":[]},{"type":"error","name":"TransferFailed","inputs":[]},{"type":"error","name":"VotingNotEnded","inputs":[]},{"type":"error","name":"ZeroAddress","inputs":[]},{"type":"error","name":"ZeroAmount","inputs":[]}],"bytecode":{"object":"0x60a060405261271060045560026005553480156200001b575f80fd5b50604051620032ee380380620032ee8339810160408190526200003e91620001c3565b33806200006457604051631e4fbdf760e01b81525f600482015260240160405180910390fd5b6200006f8162000158565b506001600160a01b038416620000985760405163d92e233d60e01b815260040160405180910390fd5b6001600160a01b038316620000c05760405163d92e233d60e01b815260040160405180910390fd5b6001600160a01b038216620000e85760405163d92e233d60e01b815260040160405180910390fd5b6001600160a01b038116620001105760405163d92e233d60e01b815260040160405180910390fd5b6001600160a01b03938416608052600180549385166001600160a01b03199485161790556002805492851692841692909217909155600380549190931691161790556200021d565b5f80546001600160a01b038381166001600160a01b0319831681178455604051919092169283917f8be0079c531659141344cd1fd0a4f28419497f9722a3daafe3b4186f6b6457e09190a35050565b80516001600160a01b0381168114620001be575f80fd5b919050565b5f805f8060808587031215620001d7575f80fd5b620001e285620001a7565b9350620001f260208601620001a7565b92506200020260408601620001a7565b91506200021260608601620001a7565b905092959194509250565b6080516130726200027c5f395f818161026c01528181610a8701528181610ca1015281816113e301528181611be001528181611c8b015281816120550152818161210f015281816121d301528181612271015261230e01526130725ff3fe608060405234801561000f575f80fd5b506004361061023f575f3560e01c806398ba676d11610135578063bd2ea63f116100b4578063eb44fdd311610079578063eb44fdd3146104d9578063ec979082146104f9578063f2fde38b14610502578063f978fd6114610515578063fe5b3e3b14610547575f80fd5b8063bd2ea63f146104a2578063c03eee3214610403578063cff4cc31146104b5578063dc6f7c57146104c6578063e1e1ed5a146102ea575f80fd5b8063a4b9328b116100fa578063a4b9328b14610440578063a5d6fb1f14610449578063ab8c9f8d1461045c578063b1283e7714610465578063bc3ee2b91461048f575f80fd5b806398ba676d146103d05780639bd1d513146103f0578063a04941a214610403578063a06dbfa31461040c578063a34b46fe1461041f575f80fd5b80635c2e1f2a116101c15780637dc0d1d0116101865780637dc0d1d0146103895780638a6655d61461039c5780638da5cb5b146103af578063977a5c47146103bf57806397874124146103c7575f80fd5b80635c2e1f2a1461034057806370d5ae0514610353578063715018a6146103665780637adbf9731461036e5780637d4cb96414610381575f80fd5b806328cd26dc1161020757806328cd26dc146102f35780632a9795cd14610306578063324578f81461030f5780634b0e7216146103185780634f896d4f1461032d575f80fd5b80630a6f8981146102435780630cae9d5e1461026757806317b937e6146102a657806319a51a31146102ca57806326f4c776146102ea575b5f80fd5b61025469152d02c7e14af680000081565b6040519081526020015b60405180910390f35b61028e7f000000000000000000000000000000000000000000000000000000000000000081565b6040516001600160a01b03909116815260200161025e565b6102b96102b4366004612894565b610571565b60405161025e9594939291906128f7565b6102dd6102d8366004612939565b610641565b60405161025e919061298a565b61025461546081565b610254610301366004612894565b6106a0565b61025460055481565b61025460045481565b61032b6103263660046129b7565b6106c4565b005b61032b61033b366004612939565b610715565b60025461028e906001600160a01b031681565b60035461028e906001600160a01b031681565b61032b61089c565b61032b61037c3660046129b7565b6108af565b610254606481565b60015461028e906001600160a01b031681565b61032b6103aa3660046129d0565b610939565b5f546001600160a01b031661028e565b610254600281565b6102546107d081565b6103e36103de366004612894565b610b6f565b60405161025e91906129f9565b6102546103fe366004612a99565b610c8e565b6102546103e881565b61032b61041a366004612894565b610f2b565b61043261042d366004612939565b610f7a565b60405161025e929190612b19565b61025461157c81565b610254610457366004612b46565b6111eb565b6102546101f481565b610478610473366004612939565b6115f1565b60405161025e9b9a99989796959493929190612c06565b61025461049d366004612894565b611761565b6102546104b0366004612894565b61178c565b61025469021e19e0c9bab240000081565b61032b6104d43660046129b7565b611825565b6104ec6104e7366004612939565b611876565b60405161025e9190612c8d565b61025460065481565b61032b6105103660046129b7565b611a54565b610537610523366004612939565b600b6020525f908152604090205460ff1681565b604051901515815260200161025e565b610254610555366004612d50565b600960209081525f928352604080842090915290825290205481565b600860209081525f9283526040808420909152908252902080546001820180546001600160a01b0390921692916105a790612d7a565b80601f01602080910402602001604051908101604052809291908181526020018280546105d390612d7a565b801561061e5780601f106105f55761010080835404028352916020019161061e565b820191905f5260205f20905b81548152906001019060200180831161060157829003601f168201915b50505050600283015460039093015491929160ff80821692506101009091041685565b5f818152600a602090815260409182902080548351818402810184019094528084526060939283018282801561069457602002820191905f5260205f20905b815481526020019060010190808311610680575b50505050509050919050565b5f828152600760208190526040822001546106bb908361178c565b90505b92915050565b6106cc611a96565b6001600160a01b0381166106f35760405163d92e233d60e01b815260040160405180910390fd5b600380546001600160a01b0319166001600160a01b0392909216919091179055565b5f81815260076020526040902080546001600160a01b031661074a57604051639db8d5b160e01b815260040160405180910390fd5b6009810154610100900460ff16156107755760405163aa43cb2d60e01b815260040160405180910390fd5b8060050154421161079957604051633fc30bd160e11b815260040160405180910390fd5b60098101805461ffff19166101021790555f828152600a60209081526040808320805482518185028101850190935280835291929091908301828280156107fd57602002820191905f5260205f20905b8154815260200190600101908083116107e9575b505050505090505f61080f8483611ac2565b9050600281101561082a576108248483611b33565b50505050565b5f805f806108388887611d0f565b60408051858152602081018590529081018390529397509195509350915088907f9f7cb4c52f35416365b5664015fc31776d715fff39c7b9cb7529d135f9885f499060600160405180910390a26108928885858585611e06565b5050505050505050565b6108a4611a96565b6108ad5f6123af565b565b6108b7611a96565b6001600160a01b0381166108de57604051639589a27d60e01b815260040160405180910390fd5b6001546040516001600160a01b038084169216907f078c3b417dadf69374a59793b829c52001247130433427049317bde56607b1b7905f90a3600180546001600160a01b0319166001600160a01b0392909216919091179055565b805f0361095957604051631f2a200560e01b815260040160405180910390fd5b5f8381526007602090815260408083206008835281842086855290925290912081546001600160a01b03166109a157604051639db8d5b160e01b815260040160405180910390fd5b6003810154610100900460ff166109cb5760405163d12045c560e01b815260040160405180910390fd5b600381015460ff16156109f15760405163fc860c3760e01b815260040160405180910390fd5b81600401544211610a1557604051635b7a119b60e11b815260040160405180910390fd5b8160050154421115610a3a57604051635b7a119b60e11b815260040160405180910390fd5b5f600983015460ff166003811115610a5457610a54612bd2565b03610a695760098201805460ff191660011790555b5f610a7883600701548561178c565b9050610aaf6001600160a01b037f0000000000000000000000000000000000000000000000000000000000000000163330846123fe565b80836006015f828254610ac29190612dc6565b9250508190555083826002015f828254610adc9190612dc6565b9250508190555083836007015f828254610af69190612dc6565b90915550505f86815260096020908152604080832033845290915281208054869290610b23908490612dc6565b909155505060408051858152602081018390523391879189917f58cfe003711e6d7e0f32c93d3eb5617a03925d8863d7bb5dc084666365866022910160405180910390a4505050505050565b6040805160a0810182525f80825260606020830181905292820181905291810182905260808101919091525f838152600860209081526040808320858452825291829020825160a0810190935280546001600160a01b031683526001810180549192840191610bdd90612d7a565b80601f0160208091040260200160405190810160405280929190818152602001828054610c0990612d7a565b8015610c545780601f10610c2b57610100808354040283529160200191610c54565b820191905f5260205f20905b815481529060010190602001808311610c3757829003601f168201915b50505091835250506002820154602082015260039091015460ff808216151560408401526101009091041615156060909101529392505050565b6003545f90610cd6906001600160a01b037f000000000000000000000000000000000000000000000000000000000000000081169133911669152d02c7e14af68000006123fe565b835f03610ceb5769021e19e0c9bab240000093505b825f03610cf85761546092505b815f03610d055761546091505b60068054905f610d1483612dd9565b9091555090505f610d258442612dc6565b90505f610d328483612dc6565b9050604051806101600160405280336001600160a01b031681526020018b8b8080601f0160208091040260200160405190810160405280939291908181526020018383808284375f92019190915250505090825250604080516020601f8c018190048102820181019092528a815291810191908b908b90819084018382808284375f9201829052509385525050506020820189905260408201859052606082018490526080820181905260a0820181905260c0820181905260e09091019081525f60209182018190528581526007825260409020825181546001600160a01b0319166001600160a01b03909116178155908201516001820190610e359082612e50565b5060408201516002820190610e4a9082612e50565b50606082015181600301556080820151816004015560a0820151816005015560c0820151816006015560e082015181600701556101008201518160080155610120820151816009015f6101000a81548160ff02191690836003811115610eb257610eb2612bd2565b02179055506101409190910151600990910180549115156101000261ff0019909216919091179055604051339084907f4a7d407b15f60472268a43a4f0fc258be19105b8967dd8123b49b25ade8d012890610f16908e908e908c9089908990612f38565b60405180910390a35050979650505050505050565b610f33611a96565b6004829055600581905560408051838152602081018390527fc7f5f3d6d899e425ac39aa624d04deea7cdea431373328bda593d20cf3fa12e7910160405180910390a15050565b6060805f600a5f8581526020019081526020015f20805480602002602001604051908101604052809291908181526020018280548015610fd757602002820191905f5260205f20905b815481526020019060010190808311610fc3575b505050505090505f815167ffffffffffffffff811115610ff957610ff9612df1565b604051908082528060200260200182016040528015611022578160200160208202803683370190505b5090505f5b82518110156110925760085f8781526020019081526020015f205f84838151811061105457611054612f68565b602002602001015181526020019081526020015f206002015482828151811061107f5761107f612f68565b6020908102919091010152600101611027565b505f5b82518110156111e0575f6110aa826001612dc6565b90505b83518110156111d7578282815181106110c8576110c8612f68565b60200260200101518382815181106110e2576110e2612f68565b602002602001015111156111cf5782818151811061110257611102612f68565b602002602001015183838151811061111c5761111c612f68565b602002602001015184848151811061113657611136612f68565b6020026020010185848151811061114f5761114f612f68565b602002602001018281525082815250505083818151811061117257611172612f68565b602002602001015184838151811061118c5761118c612f68565b60200260200101518584815181106111a6576111a6612f68565b602002602001018684815181106111bf576111bf612f68565b6020908102919091010191909152525b6001016110ad565b50600101611095565b509094909350915050565b5f86815260076020526040812080546001600160a01b031661122057604051639db8d5b160e01b815260040160405180910390fd5b6064816008015410611245576040516312f245f360e31b815260040160405180910390fd5b8060040154421115611299575f600982015460ff16600381111561126b5761126b612bd2565b036112805760098101805460ff191660011790555b60405163d7d0062d60e01b815260040160405180910390fd5b5f888888886040516020016112b19493929190612f7c565b6040516020818303038152906040528051906020012090505f85856040516112da929190612f9f565b60408051918290039091205f818152600b602052919091205490915060ff16156113175760405163900bb2c960e01b815260040160405180910390fd5b5f818152600b60205260408120805460ff191660011790557f19457468657265756d205369676e6564204d6573736167653a0a3332000000008152601c839052603c812090505f61139f88888080601f0160208091040260200160405190810160405280939291908181526020018383808284375f9201919091525086939250506124349050565b6001549091506001600160a01b038083169116146113d057604051638baa579f60e01b815260040160405180910390fd5b600385015461140d906001600160a01b037f00000000000000000000000000000000000000000000000000000000000000001690339030906123fe565b8460030154856006015f8282546114249190612dc6565b9091555050600885018054905f61143a83612dd9565b9190505595506040518060a00160405280336001600160a01b031681526020018c8c8080601f0160208091040260200160405190810160405280939291908181526020018383808284375f81840152601f19601f8201169050808301925050505050505081526020015f81526020018a15151581526020016001151581525060085f8e81526020019081526020015f205f8881526020019081526020015f205f820151815f015f6101000a8154816001600160a01b0302191690836001600160a01b0316021790555060208201518160010190816115189190612e50565b50604082015181600201556060820151816003015f6101000a81548160ff02191690831515021790555060808201518160030160016101000a81548160ff021916908315150217905550905050600a5f8d81526020019081526020015f2086908060018154018082558091505060019003905f5260205f20015f9091909190915055336001600160a01b0316868d7ffb299d98ffbafefc1b2a01b414e9fd21b444fef89b691d2fd2aed101ec4d27a78e8e8e156040516115da93929190612fae565b60405180910390a450505050509695505050505050565b60076020525f9081526040902080546001820180546001600160a01b03909216929161161c90612d7a565b80601f016020809104026020016040519081016040528092919081815260200182805461164890612d7a565b80156116935780601f1061166a57610100808354040283529160200191611693565b820191905f5260205f20905b81548152906001019060200180831161167657829003601f168201915b5050505050908060020180546116a890612d7a565b80601f01602080910402602001604051908101604052809291908181526020018280546116d490612d7a565b801561171f5780601f106116f65761010080835404028352916020019161171f565b820191905f5260205f20905b81548152906001019060200180831161170257829003601f168201915b50505050600383015460048401546005850154600686015460078701546008880154600990980154969794969395509193909260ff808216916101009004168b565b600a602052815f5260405f20818154811061177a575f80fd5b905f5260205f20015f91509150505481565b5f670de0b6b3a7640000816117a1858361245c565b90505f6117b76117b18688612dc6565b8461245c565b9050670de0b6b3a76400006002866117cf8486612dc6565b6117d99190612fd3565b6117e39190612fea565b6117ed9190612fea565b93505f670de0b6b3a76400006118038786612fd3565b61180d9190612fea565b90508085101561181b578094505b5050505092915050565b61182d611a96565b6001600160a01b0381166118545760405163d92e233d60e01b815260040160405180910390fd5b600280546001600160a01b0319166001600160a01b0392909216919091179055565b61187e612829565b5f828152600760209081526040918290208251610160810190935280546001600160a01b0316835260018101805491928401916118ba90612d7a565b80601f01602080910402602001604051908101604052809291908181526020018280546118e690612d7a565b80156119315780601f1061190857610100808354040283529160200191611931565b820191905f5260205f20905b81548152906001019060200180831161191457829003601f168201915b5050505050815260200160028201805461194a90612d7a565b80601f016020809104026020016040519081016040528092919081815260200182805461197690612d7a565b80156119c15780601f10611998576101008083540402835291602001916119c1565b820191905f5260205f20905b8154815290600101906020018083116119a457829003601f168201915b50505091835250506003828101546020830152600483015460408301526005830154606083015260068301546080830152600783015460a0830152600883015460c0830152600983015460e09092019160ff1690811115611a2457611a24612bd2565b6003811115611a3557611a35612bd2565b815260099190910154610100900460ff16151560209091015292915050565b611a5c611a96565b6001600160a01b038116611a8a57604051631e4fbdf760e01b81525f60048201526024015b60405180910390fd5b611a93816123af565b50565b5f546001600160a01b031633146108ad5760405163118cdaa760e01b8152336004820152602401611a81565b5f805b8251811015611b2c5760085f8581526020019081526020015f205f848381518110611af257611af2612f68565b60209081029190910181015182528101919091526040015f206003015460ff16611b245781611b2081612dd9565b9250505b600101611ac5565b5092915050565b5f828152600760205260408120905b8251811015611c6a575f84815260086020526040812084518290869085908110611b6e57611b6e612f68565b602002602001015181526020019081526020015f2090508060030160019054906101000a900460ff168015611ba85750600381015460ff16155b15611c615760038301548015611c5f5780846006015f828254611bcb9190613009565b90915550508154611c09906001600160a01b037f00000000000000000000000000000000000000000000000000000000000000008116911683612558565b81546040516001600160a01b039091169087905f8051602061301d83398151915290611c5690858152604060208201819052600690820152651c99599d5b9960d21b606082015260800190565b60405180910390a35b505b50600101611b42565b50600681015415611d0a576002546006820154611cb5916001600160a01b037f0000000000000000000000000000000000000000000000000000000000000000811692911690612558565b60025460068201546040805191825260208201819052600790820152667374616b65727360c81b60608201526001600160a01b039091169084905f8051602061301d8339815191529060800160405180910390a35b505050565b5f805f805f805f805f5b8951811015611df1575f8b81526008602052604081208b5182908d9085908110611d4557611d45612f68565b602002602001015181526020019081526020015f209050806003015f9054906101000a900460ff1615611d785750611de9565b82611d8281612dd9565b9350505f816002015490505f8c8481518110611da057611da0612f68565b6020026020010151905087821115611dc1579a99985095949350858a611de5565b86821115611dd6579998509493508489611de5565b85821115611de5578099508195505b5050505b600101611d19565b50600381101594505050505092959194509250565b5f85815260076020908152604080832060068101546008845282852089865290935281842087855282852087865292852060028085015490830154939692949391929182918291148015611e61575083600201548560020154145b15611eb5575f6003612710896103e8611e7e6107d061157c612dc6565b611e889190612dc6565b611e929190612fd3565b611e9c9190612fea565b611ea69190612fea565b9350839250829150611fdb9050565b8460020154866002015403611f20575f600261271089611ed96107d061157c612dc6565b611ee39190612fd3565b611eed9190612fea565b611ef79190612fea565b9350839250829050612710611f0e896103e8612fd3565b611f189190612fea565b915050611fdb565b8360020154856002015403611f8957612710611f3e8861157c612fd3565b611f489190612fea565b92505f600261271089611f5f6103e86107d0612dc6565b611f699190612fd3565b611f739190612fea565b611f7d9190612fea565b9250829150611fdb9050565b612710611f988861157c612fd3565b611fa29190612fea565b9250612710611fb3886107d0612fd3565b611fbd9190612fea565b9150612710611fce886103e8612fd3565b611fd89190612fea565b90505b5f612710611feb896103e8612fd3565b611ff59190612fea565b90505f6127106120078a6101f4612fd3565b6120119190612fea565b90508a612028576120228383612dc6565b91505f92505b5f85118015612040575087546001600160a01b031615155b156120e257875461207e906001600160a01b037f00000000000000000000000000000000000000000000000000000000000000008116911687612558565b875f015f9054906101000a90046001600160a01b03166001600160a01b03168f5f8051602061301d833981519152876040516120d991815260406020820181905260059082015264199a5c9cdd60da1b606082015260800190565b60405180910390a35b5f841180156120fa575086546001600160a01b031615155b1561219d578654612138906001600160a01b037f00000000000000000000000000000000000000000000000000000000000000008116911686612558565b865f015f9054906101000a90046001600160a01b03166001600160a01b03168f5f8051602061301d83398151915286604051612194918152604060208201819052600690820152651cd958dbdb9960d21b606082015260800190565b60405180910390a35b8a80156121a957505f83115b80156121be575085546001600160a01b031615155b156122605785546121fc906001600160a01b037f00000000000000000000000000000000000000000000000000000000000000008116911685612558565b855f015f9054906101000a90046001600160a01b03166001600160a01b03168f5f8051602061301d83398151915285604051612257918152604060208201819052600590820152641d1a1a5c9960da1b606082015260800190565b60405180910390a35b60025461229a906001600160a01b037f00000000000000000000000000000000000000000000000000000000000000008116911684612558565b60025f9054906101000a90046001600160a01b03166001600160a01b03168f5f8051602061301d833981519152846040516122f6918152604060208201819052600790820152667374616b65727360c81b606082015260800190565b60405180910390a38954612337906001600160a01b037f00000000000000000000000000000000000000000000000000000000000000008116911683612558565b895f015f9054906101000a90046001600160a01b03166001600160a01b03168f5f8051602061301d833981519152836040516123969181526040602082018190526009908201526834b734ba34b0ba37b960b91b606082015260800190565b60405180910390a3505050505050505050505050505050565b5f80546001600160a01b038381166001600160a01b0319831681178455604051919092169283917f8be0079c531659141344cd1fd0a4f28419497f9722a3daafe3b4186f6b6457e09190a35050565b61240c84848484600161258d565b61082457604051635274afe760e01b81526001600160a01b0385166004820152602401611a81565b5f805f8061244286866125fa565b9250925092506124528282612643565b5090949350505050565b5f8060045484670de0b6b3a76400006124759190612fd3565b61247f9190612fea565b61249190670de0b6b3a7640000612dc6565b90506005546002036124d857670de0b6b3a764000080826124b28187612fd3565b6124bc9190612fd3565b6124c69190612fea565b6124d09190612fea565b9150506106be565b6005546001036124f557670de0b6b3a76400006124c68285612fd3565b670de0b6b3a76400005f5b60055481101561253157670de0b6b3a764000061251d8484612fd3565b6125279190612fea565b9150600101612500565b50670de0b6b3a76400006125458286612fd3565b61254f9190612fea565b925050506106be565b61256583838360016126ff565b611d0a57604051635274afe760e01b81526001600160a01b0384166004820152602401611a81565b6040516323b872dd60e01b5f8181526001600160a01b038781166004528616602452604485905291602083606481808c5af1925060015f511483166125e95783831516156125dd573d5f823e3d81fd5b5f883b113d1516831692505b604052505f60605295945050505050565b5f805f8351604103612631576020840151604085015160608601515f1a61262388828585612761565b95509550955050505061263c565b505081515f91506002905b9250925092565b5f82600381111561265657612656612bd2565b0361265f575050565b600182600381111561267357612673612bd2565b036126915760405163f645eedf60e01b815260040160405180910390fd5b60028260038111156126a5576126a5612bd2565b036126c65760405163fce698f760e01b815260048101829052602401611a81565b60038260038111156126da576126da612bd2565b036126fb576040516335e2f38360e21b815260048101829052602401611a81565b5050565b60405163a9059cbb60e01b5f8181526001600160a01b038616600452602485905291602083604481808b5af1925060015f51148316612755578383151615612749573d5f823e3d81fd5b5f873b113d1516831692505b60405250949350505050565b5f80807f7fffffffffffffffffffffffffffffff5d576e7357a4501ddfe92f46681b20a084111561279a57505f9150600390508261281f565b604080515f808252602082018084528a905260ff891692820192909252606081018790526080810186905260019060a0016020604051602081039080840390855afa1580156127eb573d5f803e3d5ffd5b5050604051601f1901519150506001600160a01b03811661281657505f92506001915082905061281f565b92505f91508190505b9450945094915050565b6040518061016001604052805f6001600160a01b0316815260200160608152602001606081526020015f81526020015f81526020015f81526020015f81526020015f81526020015f81526020015f600381111561288857612888612bd2565b81525f60209091015290565b5f80604083850312156128a5575f80fd5b50508035926020909101359150565b5f81518084525f5b818110156128d8576020818501810151868301820152016128bc565b505f602082860101526020601f19601f83011685010191505092915050565b6001600160a01b038616815260a0602082018190525f9061291a908301876128b4565b6040830195909552509115156060830152151560809091015292915050565b5f60208284031215612949575f80fd5b5035919050565b5f815180845260208085019450602084015f5b8381101561297f57815187529582019590820190600101612963565b509495945050505050565b602081525f6106bb6020830184612950565b80356001600160a01b03811681146129b2575f80fd5b919050565b5f602082840312156129c7575f80fd5b6106bb8261299c565b5f805f606084860312156129e2575f80fd5b505081359360208301359350604090920135919050565b602080825282516001600160a01b03168282015282015160a060408301525f90612a2660c08401826128b4565b9050604084015160608401526060840151151560808401526080840151151560a08401528091505092915050565b5f8083601f840112612a64575f80fd5b50813567ffffffffffffffff811115612a7b575f80fd5b602083019150836020828501011115612a92575f80fd5b9250929050565b5f805f805f805f60a0888a031215612aaf575f80fd5b873567ffffffffffffffff80821115612ac6575f80fd5b612ad28b838c01612a54565b909950975060208a0135915080821115612aea575f80fd5b50612af78a828b01612a54565b989b979a50986040810135976060820135975060809091013595509350505050565b604081525f612b2b6040830185612950565b8281036020840152612b3d8185612950565b95945050505050565b5f805f805f8060808789031215612b5b575f80fd5b86359550602087013567ffffffffffffffff80821115612b79575f80fd5b612b858a838b01612a54565b9097509550604089013591508115158214612b9e575f80fd5b90935060608801359080821115612bb3575f80fd5b50612bc089828a01612a54565b979a9699509497509295939492505050565b634e487b7160e01b5f52602160045260245ffd5b60048110612c0257634e487b7160e01b5f52602160045260245ffd5b9052565b6001600160a01b038c168152610160602082018190525f90612c2a8382018e6128b4565b90508281036040840152612c3e818d6128b4565b9150508960608301528860808301528760a08301528660c08301528560e083015284610100830152612c74610120830185612be6565b8215156101408301529c9b505050505050505050505050565b60208152612ca76020820183516001600160a01b03169052565b5f6020830151610160806040850152612cc46101808501836128b4565b91506040850151601f19858403016060860152612ce183826128b4565b92505060608501516080850152608085015160a085015260a085015160c085015260c085015160e085015260e0850151610100818187015280870151915050610120818187015280870151915050610140612d3e81870183612be6565b90950151151593019290925250919050565b5f8060408385031215612d61575f80fd5b82359150612d716020840161299c565b90509250929050565b600181811c90821680612d8e57607f821691505b602082108103612dac57634e487b7160e01b5f52602260045260245ffd5b50919050565b634e487b7160e01b5f52601160045260245ffd5b808201808211156106be576106be612db2565b5f60018201612dea57612dea612db2565b5060010190565b634e487b7160e01b5f52604160045260245ffd5b601f821115611d0a57805f5260205f20601f840160051c81016020851015612e2a5750805b601f840160051c820191505b81811015612e49575f8155600101612e36565b5050505050565b815167ffffffffffffffff811115612e6a57612e6a612df1565b612e7e81612e788454612d7a565b84612e05565b602080601f831160018114612eb1575f8415612e9a5750858301515b5f19600386901b1c1916600185901b178555612f08565b5f85815260208120601f198616915b82811015612edf57888601518255948401946001909101908401612ec0565b5085821015612efc57878501515f19600388901b60f8161c191681555b505060018460011b0185555b505050505050565b81835281816020850137505f828201602090810191909152601f909101601f19169091010190565b608081525f612f4b608083018789612f10565b602083019590955250604081019290925260609091015292915050565b634e487b7160e01b5f52603260045260245ffd5b8481528284602083013790151560f81b9101602081019190915260210192915050565b818382375f9101908152919050565b604081525f612fc1604083018587612f10565b90508215156020830152949350505050565b80820281158282048414176106be576106be612db2565b5f8261300457634e487b7160e01b5f52601260045260245ffd5b500490565b818103818111156106be576106be612db256fe712a125cff0ee897af77cf5991ec0c7992adfb1b62a7fa10879ff4b9cdb2a24aa264697066735822122024e6b67f8dd55743cd3aea45a0bb318c7780f7950fa4f5e1e186e2058c84e8f564736f6c63430008180033","linkReferences":{}},"methodIdentifiers":{"DEFAULT_ENTRY_DURATION()":"e1e1ed5a","DEFAULT_ENTRY_FEE()":"cff4cc31","DEFAULT_VOTE_DURATION()":"26f4c776","FIRST_PLACE_BPS()":"a4b9328b","INITIATOR_BPS()":"ab8c9f8d","MARKET_CREATION_FEE()":"0a6f8981","MAX_ENTRIES()":"7d4cb964","MIN_ENTRIES_TO_PROCEED()":"977a5c47","SECOND_PLACE_BPS()":"97874124","STAKERS_BPS()":"a04941a2","THIRD_PLACE_BPS()":"c03eee32","burnAddress()":"70d5ae05","calculateVoteCost(uint256,uint256)":"bd2ea63f","createMarket(string,string,uint256,uint256,uint256)":"9bd1d513","curveExponent()":"2a9795cd","curveParam()":"324578f8","emberToken()":"0cae9d5e","entries(uint256,uint256)":"17b937e6","getCurrentVotePrice(uint256,uint256)":"28cd26dc","getEntry(uint256,uint256)":"98ba676d","getLeaderboard(uint256)":"a34b46fe","getMarket(uint256)":"eb44fdd3","getMarketEntries(uint256)":"19a51a31","marketCount()":"ec979082","marketEntryIds(uint256,uint256)":"bc3ee2b9","markets(uint256)":"b1283e77","oracle()":"7dc0d1d0","owner()":"8da5cb5b","renounceOwnership()":"715018a6","resolve(uint256)":"4f896d4f","setBurnAddress(address)":"4b0e7216","setCurveParams(uint256,uint256)":"a06dbfa3","setOracle(address)":"7adbf973","setStakingDrip(address)":"dc6f7c57","stakingDrip()":"5c2e1f2a","submitEntry(uint256,string,bool,bytes)":"a5d6fb1f","transferOwnership(address)":"f2fde38b","usedSignatures(bytes32)":"f978fd61","userVotes(uint256,address)":"fe5b3e3b","vote(uint256,uint256,uint256)":"8a6655d6"},"id":16}